{
  "contractName": "MarketPlace",
  "abi": [
    {
      "anonymous": false,
      "inputs": [
        {
          "indexed": true,
          "internalType": "address",
          "name": "ct",
          "type": "address"
        },
        {
          "indexed": true,
          "internalType": "uint256",
          "name": "tokenId",
          "type": "uint256"
        },
        {
          "indexed": false,
          "internalType": "address",
          "name": "buyer",
          "type": "address"
        },
        {
          "indexed": false,
          "internalType": "address",
          "name": "seller",
          "type": "address"
        },
        {
          "indexed": false,
          "internalType": "address",
          "name": "unit",
          "type": "address"
        },
        {
          "indexed": false,
          "internalType": "uint256",
          "name": "matchPrice",
          "type": "uint256"
        },
        {
          "indexed": false,
          "internalType": "string",
          "name": "data",
          "type": "string"
        },
        {
          "indexed": false,
          "internalType": "uint256",
          "name": "timestamp",
          "type": "uint256"
        }
      ],
      "name": "MATCH",
      "type": "event"
    },
    {
      "anonymous": false,
      "inputs": [
        {
          "indexed": true,
          "internalType": "address",
          "name": "ct",
          "type": "address"
        },
        {
          "indexed": true,
          "internalType": "uint256",
          "name": "tokenId",
          "type": "uint256"
        },
        {
          "indexed": true,
          "internalType": "address",
          "name": "who",
          "type": "address"
        },
        {
          "indexed": false,
          "internalType": "address",
          "name": "unit",
          "type": "address"
        },
        {
          "indexed": false,
          "internalType": "uint256",
          "name": "offersPrice",
          "type": "uint256"
        },
        {
          "indexed": false,
          "internalType": "uint256",
          "name": "startTime",
          "type": "uint256"
        },
        {
          "indexed": false,
          "internalType": "uint256",
          "name": "duration",
          "type": "uint256"
        },
        {
          "indexed": false,
          "internalType": "uint256",
          "name": "timestamp",
          "type": "uint256"
        }
      ],
      "name": "OFFERS",
      "type": "event"
    },
    {
      "anonymous": false,
      "inputs": [
        {
          "indexed": true,
          "internalType": "address",
          "name": "ct",
          "type": "address"
        },
        {
          "indexed": true,
          "internalType": "uint256",
          "name": "tokenId",
          "type": "uint256"
        },
        {
          "indexed": true,
          "internalType": "address",
          "name": "who",
          "type": "address"
        },
        {
          "indexed": false,
          "internalType": "address",
          "name": "unit",
          "type": "address"
        },
        {
          "indexed": false,
          "internalType": "uint256",
          "name": "openPrice",
          "type": "uint256"
        },
        {
          "indexed": false,
          "internalType": "uint256",
          "name": "closePrice",
          "type": "uint256"
        },
        {
          "indexed": false,
          "internalType": "uint256",
          "name": "startTime",
          "type": "uint256"
        },
        {
          "indexed": false,
          "internalType": "uint256",
          "name": "duration",
          "type": "uint256"
        },
        {
          "indexed": false,
          "internalType": "bool",
          "name": "keep",
          "type": "bool"
        },
        {
          "indexed": false,
          "internalType": "uint256",
          "name": "timestamp",
          "type": "uint256"
        }
      ],
      "name": "ORDER",
      "type": "event"
    },
    {
      "anonymous": false,
      "inputs": [
        {
          "indexed": true,
          "internalType": "address",
          "name": "ct",
          "type": "address"
        },
        {
          "indexed": true,
          "internalType": "uint256",
          "name": "tokenId",
          "type": "uint256"
        },
        {
          "indexed": true,
          "internalType": "address",
          "name": "who",
          "type": "address"
        },
        {
          "indexed": false,
          "internalType": "uint256",
          "name": "price",
          "type": "uint256"
        },
        {
          "indexed": false,
          "internalType": "string",
          "name": "data",
          "type": "string"
        },
        {
          "indexed": false,
          "internalType": "uint256",
          "name": "timestamp",
          "type": "uint256"
        }
      ],
      "name": "UPDATE",
      "type": "event"
    },
    {
      "inputs": [
        {
          "internalType": "address",
          "name": "",
          "type": "address"
        },
        {
          "internalType": "uint256",
          "name": "",
          "type": "uint256"
        },
        {
          "internalType": "uint256",
          "name": "",
          "type": "uint256"
        }
      ],
      "name": "listOffers",
      "outputs": [
        {
          "internalType": "address",
          "name": "",
          "type": "address"
        }
      ],
      "stateMutability": "view",
      "type": "function",
      "constant": true
    },
    {
      "inputs": [
        {
          "internalType": "address",
          "name": "",
          "type": "address"
        },
        {
          "internalType": "uint256",
          "name": "",
          "type": "uint256"
        }
      ],
      "name": "myOffers",
      "outputs": [
        {
          "internalType": "uint256",
          "name": "ver",
          "type": "uint256"
        },
        {
          "internalType": "address",
          "name": "ct",
          "type": "address"
        },
        {
          "internalType": "uint256",
          "name": "tokenId",
          "type": "uint256"
        }
      ],
      "stateMutability": "view",
      "type": "function",
      "constant": true
    },
    {
      "inputs": [
        {
          "internalType": "address",
          "name": "",
          "type": "address"
        },
        {
          "internalType": "uint256",
          "name": "",
          "type": "uint256"
        }
      ],
      "name": "myOrder",
      "outputs": [
        {
          "internalType": "uint256",
          "name": "ver",
          "type": "uint256"
        },
        {
          "internalType": "address",
          "name": "ct",
          "type": "address"
        },
        {
          "internalType": "uint256",
          "name": "tokenId",
          "type": "uint256"
        }
      ],
      "stateMutability": "view",
      "type": "function",
      "constant": true
    },
    {
      "inputs": [
        {
          "internalType": "address",
          "name": "",
          "type": "address"
        },
        {
          "internalType": "address",
          "name": "",
          "type": "address"
        },
        {
          "internalType": "uint256",
          "name": "",
          "type": "uint256"
        }
      ],
      "name": "offers",
      "outputs": [
        {
          "internalType": "address",
          "name": "unit",
          "type": "address"
        },
        {
          "internalType": "uint256",
          "name": "offersPrice",
          "type": "uint256"
        },
        {
          "internalType": "uint256",
          "name": "startTime",
          "type": "uint256"
        },
        {
          "internalType": "uint256",
          "name": "duration",
          "type": "uint256"
        }
      ],
      "stateMutability": "view",
      "type": "function",
      "constant": true
    },
    {
      "inputs": [
        {
          "internalType": "address",
          "name": "",
          "type": "address"
        },
        {
          "internalType": "uint256",
          "name": "",
          "type": "uint256"
        }
      ],
      "name": "order",
      "outputs": [
        {
          "internalType": "address",
          "name": "seller",
          "type": "address"
        },
        {
          "internalType": "address",
          "name": "unit",
          "type": "address"
        },
        {
          "internalType": "uint256",
          "name": "openPrice",
          "type": "uint256"
        },
        {
          "internalType": "uint256",
          "name": "closePrice",
          "type": "uint256"
        },
        {
          "internalType": "uint256",
          "name": "startTime",
          "type": "uint256"
        },
        {
          "internalType": "uint256",
          "name": "duration",
          "type": "uint256"
        },
        {
          "internalType": "bool",
          "name": "keep",
          "type": "bool"
        }
      ],
      "stateMutability": "view",
      "type": "function",
      "constant": true
    },
    {
      "inputs": [
        {
          "internalType": "uint256",
          "name": "_ver",
          "type": "uint256"
        },
        {
          "internalType": "address",
          "name": "_ct",
          "type": "address"
        },
        {
          "internalType": "address",
          "name": "_user",
          "type": "address"
        },
        {
          "internalType": "uint256",
          "name": "_tokenId",
          "type": "uint256"
        }
      ],
      "name": "owner",
      "outputs": [
        {
          "internalType": "bool",
          "name": "isOwner",
          "type": "bool"
        }
      ],
      "stateMutability": "view",
      "type": "function",
      "constant": true
    },
    {
      "inputs": [
        {
          "internalType": "uint256",
          "name": "_ver",
          "type": "uint256"
        },
        {
          "internalType": "address",
          "name": "_ct",
          "type": "address"
        },
        {
          "internalType": "uint256",
          "name": "_tokenId",
          "type": "uint256"
        },
        {
          "internalType": "address",
          "name": "_unit",
          "type": "address"
        },
        {
          "internalType": "uint256",
          "name": "_openPrice",
          "type": "uint256"
        },
        {
          "internalType": "uint256",
          "name": "_closePrice",
          "type": "uint256"
        },
        {
          "internalType": "uint256",
          "name": "_startTime",
          "type": "uint256"
        },
        {
          "internalType": "uint256",
          "name": "_duration",
          "type": "uint256"
        },
        {
          "internalType": "bool",
          "name": "_keep",
          "type": "bool"
        }
      ],
      "name": "sell",
      "outputs": [],
      "stateMutability": "nonpayable",
      "type": "function"
    },
    {
      "inputs": [
        {
          "internalType": "uint256",
          "name": "_ver",
          "type": "uint256"
        },
        {
          "internalType": "address",
          "name": "_ct",
          "type": "address"
        },
        {
          "internalType": "uint256",
          "name": "_tokenId",
          "type": "uint256"
        },
        {
          "internalType": "uint256",
          "name": "_openPrice",
          "type": "uint256"
        }
      ],
      "name": "updateOrder",
      "outputs": [],
      "stateMutability": "nonpayable",
      "type": "function"
    },
    {
      "inputs": [
        {
          "internalType": "uint256",
          "name": "_ver",
          "type": "uint256"
        },
        {
          "internalType": "address",
          "name": "_ct",
          "type": "address"
        },
        {
          "internalType": "uint256",
          "name": "_tokenId",
          "type": "uint256"
        }
      ],
      "name": "buy",
      "outputs": [],
      "stateMutability": "nonpayable",
      "type": "function"
    },
    {
      "inputs": [
        {
          "internalType": "uint256",
          "name": "_ver",
          "type": "uint256"
        },
        {
          "internalType": "address",
          "name": "_ct",
          "type": "address"
        },
        {
          "internalType": "uint256",
          "name": "_tokenId",
          "type": "uint256"
        },
        {
          "internalType": "address",
          "name": "_unit",
          "type": "address"
        },
        {
          "internalType": "uint256",
          "name": "_offersPrice",
          "type": "uint256"
        },
        {
          "internalType": "uint256",
          "name": "_startTime",
          "type": "uint256"
        },
        {
          "internalType": "uint256",
          "name": "_duration",
          "type": "uint256"
        }
      ],
      "name": "setOffers",
      "outputs": [],
      "stateMutability": "nonpayable",
      "type": "function"
    },
    {
      "inputs": [
        {
          "internalType": "address",
          "name": "_ct",
          "type": "address"
        },
        {
          "internalType": "uint256",
          "name": "_tokenId",
          "type": "uint256"
        },
        {
          "internalType": "uint256",
          "name": "_offersPrice",
          "type": "uint256"
        }
      ],
      "name": "updateOffers",
      "outputs": [],
      "stateMutability": "nonpayable",
      "type": "function"
    },
    {
      "inputs": [
        {
          "internalType": "uint256",
          "name": "_ver",
          "type": "uint256"
        },
        {
          "internalType": "address",
          "name": "_ct",
          "type": "address"
        },
        {
          "internalType": "uint256",
          "name": "_tokenId",
          "type": "uint256"
        },
        {
          "internalType": "address",
          "name": "_buyer",
          "type": "address"
        }
      ],
      "name": "accept",
      "outputs": [],
      "stateMutability": "nonpayable",
      "type": "function"
    },
    {
      "inputs": [],
      "name": "getOrder",
      "outputs": [
        {
          "components": [
            {
              "internalType": "uint256",
              "name": "ver",
              "type": "uint256"
            },
            {
              "internalType": "address",
              "name": "ct",
              "type": "address"
            },
            {
              "internalType": "uint256",
              "name": "tokenId",
              "type": "uint256"
            }
          ],
          "internalType": "struct MarketPlace.Path[]",
          "name": "_filtedPath",
          "type": "tuple[]"
        }
      ],
      "stateMutability": "view",
      "type": "function",
      "constant": true
    },
    {
      "inputs": [],
      "name": "getOffers",
      "outputs": [
        {
          "components": [
            {
              "internalType": "uint256",
              "name": "ver",
              "type": "uint256"
            },
            {
              "internalType": "address",
              "name": "ct",
              "type": "address"
            },
            {
              "internalType": "uint256",
              "name": "tokenId",
              "type": "uint256"
            }
          ],
          "internalType": "struct MarketPlace.Path[]",
          "name": "_filtedPath",
          "type": "tuple[]"
        }
      ],
      "stateMutability": "view",
      "type": "function",
      "constant": true
    }
  ],
  "bytecode": "0x608060405234801561001057600080fd5b50613e07806100206000396000f3fe608060405234801561001057600080fd5b50600436106100ea5760003560e01c8063a900367c1161008c578063d36dedd211610066578063d36dedd214610264578063d5a3d90714610282578063ee30e8d3146102b4578063fc0c9a1c146102e4576100ea565b8063a900367c146101fc578063b60f94c414610218578063ca85b5f614610248576100ea565b80633ee992ee116100c85780633ee992ee1461015d57806358caf3fd1461017b5780635a6dd7541461019757806368c13d6b146101c9576100ea565b806305b102e3146100ef57806315cab3a1146101255780632afaca2014610141575b600080fd5b61010960048036038101906101049190612e27565b610300565b60405161011c97969594939291906135c0565b60405180910390f35b61013f600480360381019061013a919061317d565b61039c565b005b61015b60048036038101906101569190612f67565b6104ad565b005b610165610901565b604051610172919061375f565b60405180910390f35b61019560048036038101906101909190612e63565b610dbd565b005b6101b160048036038101906101ac9190612e27565b61102e565b6040516101c093929190613899565b60405180910390f35b6101e360048036038101906101de9190612dd8565b611095565b6040516101f39493929190613658565b60405180910390f35b61021660048036038101906102119190613019565b6110ff565b005b610232600480360381019061022d9190612f04565b611680565b60405161023f9190613781565b60405180910390f35b610262600480360381019061025d9190612fb6565b6117e2565b005b61026c611d3d565b604051610279919061375f565b60405180910390f35b61029c60048036038101906102979190612e27565b61217e565b6040516102ab93929190613899565b60405180910390f35b6102ce60048036038101906102c99190612e63565b6121e5565b6040516102db91906134ae565b60405180910390f35b6102fe60048036038101906102f991906130b7565b612240565b005b6002602052816000526040600020602052806000526040600020600091509150508060000160009054906101000a900473ffffffffffffffffffffffffffffffffffffffff16908060010160009054906101000a900473ffffffffffffffffffffffffffffffffffffffff16908060020154908060030154908060040154908060050154908060060160009054906101000a900460ff16905087565b6103a884843385611680565b6103e7576040517f08c379a00000000000000000000000000000000000000000000000000000000081526004016103de9061385e565b60405180910390fd5b80600260008573ffffffffffffffffffffffffffffffffffffffff1673ffffffffffffffffffffffffffffffffffffffff1681526020019081526020016000206000848152602001908152602001600020600201819055503373ffffffffffffffffffffffffffffffffffffffff16828473ffffffffffffffffffffffffffffffffffffffff167fb25e081c5cacc79376c86c20c2eb417c4c692b9ea4a51c564812f4b8ad4ae365844260405161049f9291906138d0565b60405180910390a450505050565b8282826104bc83833384611680565b156104fc576040517f08c379a00000000000000000000000000000000000000000000000000000000081526004016104f3906137fe565b60405180910390fd5b6000600260008473ffffffffffffffffffffffffffffffffffffffff1673ffffffffffffffffffffffffffffffffffffffff16815260200190815260200160002060008381526020019081526020016000206002015411610592576040517f08c379a0000000000000000000000000000000000000000000000000000000008152600401610589906137be565b60405180910390fd5b6000600260008773ffffffffffffffffffffffffffffffffffffffff1673ffffffffffffffffffffffffffffffffffffffff16815260200190815260200160002060008681526020019081526020016000206040518060e00160405290816000820160009054906101000a900473ffffffffffffffffffffffffffffffffffffffff1673ffffffffffffffffffffffffffffffffffffffff1673ffffffffffffffffffffffffffffffffffffffff1681526020016001820160009054906101000a900473ffffffffffffffffffffffffffffffffffffffff1673ffffffffffffffffffffffffffffffffffffffff1673ffffffffffffffffffffffffffffffffffffffff168152602001600282015481526020016003820154815260200160048201548152602001600582015481526020016006820160009054906101000a900460ff16151515158152505090506106f08787836000015188611680565b61072f576040517f08c379a0000000000000000000000000000000000000000000000000000000008152600401610726906137fe565b60405180910390fd5b60004290508160800151811015801561076757508160a00151826080015161075791906139c4565b8111158061076657508160c001515b5b6107a6576040517f08c379a000000000000000000000000000000000000000000000000000000000815260040161079d906137fe565b60405180910390fd5b6000198260600151141580156107c25750600019826040015114155b610801576040517f08c379a00000000000000000000000000000000000000000000000000000000081526004016107f8906137fe565b60405180910390fd5b60008260400151905082606001518360400151106108a15760008360a00151111561089c578260a00151836080015161083a91906139c4565b821061084c578260600151905061089b565b8260a00151836060015184604001516108659190613aa5565b8460800151846108759190613aa5565b61087f9190613a4b565b6108899190613a1a565b83604001516108989190613aa5565b90505b5b6108a9565b826060015190505b6108f68989893387600001518860200151876040518060400160405280600381526020017f62757900000000000000000000000000000000000000000000000000000000008152506127fd565b505050505050505050565b60606000600360003373ffffffffffffffffffffffffffffffffffffffff1673ffffffffffffffffffffffffffffffffffffffff168152602001908152602001600020805480602002602001604051908101604052809291908181526020016000905b82821015610a005783829060005260206000209060030201604051806060016040529081600082015481526020016001820160009054906101000a900473ffffffffffffffffffffffffffffffffffffffff1673ffffffffffffffffffffffffffffffffffffffff1673ffffffffffffffffffffffffffffffffffffffff16815260200160028201548152505081526020019060010190610964565b505050509050600080600090505b8251811015610b5a576000600560003373ffffffffffffffffffffffffffffffffffffffff1673ffffffffffffffffffffffffffffffffffffffff1681526020019081526020016000206000858481518110610a93577f4e487b7100000000000000000000000000000000000000000000000000000000600052603260045260246000fd5b60200260200101516020015173ffffffffffffffffffffffffffffffffffffffff1673ffffffffffffffffffffffffffffffffffffffff1681526020019081526020016000206000858481518110610b14577f4e487b7100000000000000000000000000000000000000000000000000000000600052603260045260246000fd5b6020026020010151604001518152602001908152602001600020600101541115610b47578180610b4390613b66565b9250505b8080610b5290613b66565b915050610a0e565b5060008167ffffffffffffffff811115610b9d577f4e487b7100000000000000000000000000000000000000000000000000000000600052604160045260246000fd5b604051908082528060200260200182016040528015610bd657816020015b610bc3612c53565b815260200190600190039081610bbb5790505b509050600080600090505b8451811015610db2576000600560003373ffffffffffffffffffffffffffffffffffffffff1673ffffffffffffffffffffffffffffffffffffffff1681526020019081526020016000206000878481518110610c66577f4e487b7100000000000000000000000000000000000000000000000000000000600052603260045260246000fd5b60200260200101516020015173ffffffffffffffffffffffffffffffffffffffff1673ffffffffffffffffffffffffffffffffffffffff1681526020019081526020016000206000878481518110610ce7577f4e487b7100000000000000000000000000000000000000000000000000000000600052603260045260246000fd5b6020026020010151604001518152602001908152602001600020600101541115610d9f57848181518110610d44577f4e487b7100000000000000000000000000000000000000000000000000000000600052603260045260246000fd5b6020026020010151838381518110610d85577f4e487b7100000000000000000000000000000000000000000000000000000000600052603260045260246000fd5b60200260200101819052508180610d9b90613b66565b9250505b8080610daa90613b66565b915050610be1565b508194505050505090565b6000600560003373ffffffffffffffffffffffffffffffffffffffff1673ffffffffffffffffffffffffffffffffffffffff16815260200190815260200160002060008573ffffffffffffffffffffffffffffffffffffffff1673ffffffffffffffffffffffffffffffffffffffff168152602001908152602001600020600084815260200190815260200160002060030154118015610eed57506000600560003373ffffffffffffffffffffffffffffffffffffffff1673ffffffffffffffffffffffffffffffffffffffff16815260200190815260200160002060008573ffffffffffffffffffffffffffffffffffffffff1673ffffffffffffffffffffffffffffffffffffffff168152602001908152602001600020600084815260200190815260200160002060020154115b610f2c576040517f08c379a0000000000000000000000000000000000000000000000000000000008152600401610f23906137fe565b60405180910390fd5b80600560003373ffffffffffffffffffffffffffffffffffffffff1673ffffffffffffffffffffffffffffffffffffffff16815260200190815260200160002060008573ffffffffffffffffffffffffffffffffffffffff1673ffffffffffffffffffffffffffffffffffffffff1681526020019081526020016000206000848152602001908152602001600020600101819055503373ffffffffffffffffffffffffffffffffffffffff16828473ffffffffffffffffffffffffffffffffffffffff167fb25e081c5cacc79376c86c20c2eb417c4c692b9ea4a51c564812f4b8ad4ae365844260405161102192919061390c565b60405180910390a4505050565b6000602052816000526040600020818154811061104a57600080fd5b9060005260206000209060030201600091509150508060000154908060010160009054906101000a900473ffffffffffffffffffffffffffffffffffffffff16908060020154905083565b600560205282600052604060002060205281600052604060002060205280600052604060002060009250925050508060000160009054906101000a900473ffffffffffffffffffffffffffffffffffffffff16908060010154908060020154908060030154905084565b86868661110e83833384611680565b1561114e576040517f08c379a0000000000000000000000000000000000000000000000000000000008152600401611145906137fe565b60405180910390fd5b6000600260008473ffffffffffffffffffffffffffffffffffffffff1673ffffffffffffffffffffffffffffffffffffffff168152602001908152602001600020600083815260200190815260200160002060020154116111e4576040517f08c379a00000000000000000000000000000000000000000000000000000000081526004016111db906137be565b60405180910390fd5b600460003373ffffffffffffffffffffffffffffffffffffffff1673ffffffffffffffffffffffffffffffffffffffff16815260200190815260200160002060008a73ffffffffffffffffffffffffffffffffffffffff1673ffffffffffffffffffffffffffffffffffffffff168152602001908152602001600020600089815260200190815260200160002060009054906101000a900460ff16611420576001600460003373ffffffffffffffffffffffffffffffffffffffff1673ffffffffffffffffffffffffffffffffffffffff16815260200190815260200160002060008b73ffffffffffffffffffffffffffffffffffffffff1673ffffffffffffffffffffffffffffffffffffffff16815260200190815260200160002060008a815260200190815260200160002060006101000a81548160ff021916908315150217905550600360003373ffffffffffffffffffffffffffffffffffffffff1673ffffffffffffffffffffffffffffffffffffffff16815260200190815260200160002060405180606001604052808c81526020018b73ffffffffffffffffffffffffffffffffffffffff1681526020018a81525090806001815401808255809150506001900390600052602060002090600302016000909190919091506000820151816000015560208201518160010160006101000a81548173ffffffffffffffffffffffffffffffffffffffff021916908373ffffffffffffffffffffffffffffffffffffffff1602179055506040820151816002015550505b60405180608001604052808873ffffffffffffffffffffffffffffffffffffffff16815260200187815260200186815260200185815250600560003373ffffffffffffffffffffffffffffffffffffffff1673ffffffffffffffffffffffffffffffffffffffff16815260200190815260200160002060008b73ffffffffffffffffffffffffffffffffffffffff1673ffffffffffffffffffffffffffffffffffffffff16815260200190815260200160002060008a815260200190815260200160002060008201518160000160006101000a81548173ffffffffffffffffffffffffffffffffffffffff021916908373ffffffffffffffffffffffffffffffffffffffff1602179055506020820151816001015560408201518160020155606082015181600301559050506000861461160657600660008a73ffffffffffffffffffffffffffffffffffffffff1673ffffffffffffffffffffffffffffffffffffffff1681526020019081526020016000206000898152602001908152602001600020339080600181540180825580915050600190039060005260206000200160009091909190916101000a81548173ffffffffffffffffffffffffffffffffffffffff021916908373ffffffffffffffffffffffffffffffffffffffff1602179055505b3373ffffffffffffffffffffffffffffffffffffffff16888a73ffffffffffffffffffffffffffffffffffffffff167ffc499a072c94701432f4d89028deae733edca965e2a7c93ef8cbc1e7bc5883188a8a8a8a4260405161166c95949392919061369d565b60405180910390a450505050505050505050565b60006102d185141561174a578273ffffffffffffffffffffffffffffffffffffffff168473ffffffffffffffffffffffffffffffffffffffff16636352211e846040518263ffffffff1660e01b81526004016116dc919061387e565b60206040518083038186803b1580156116f457600080fd5b505afa158015611708573d6000803e3d6000fd5b505050506040513d601f19601f8201168201806040525081019061172c9190612daf565b73ffffffffffffffffffffffffffffffffffffffff161490506117da565b60018473ffffffffffffffffffffffffffffffffffffffff1662fdd58e85856040518363ffffffff1660e01b815260040161178692919061362f565b60206040518083038186803b15801561179e57600080fd5b505afa1580156117b2573d6000803e3d6000fd5b505050506040513d601f19601f820116820180604052508101906117d69190612edb565b1490505b949350505050565b6117ee84843385611680565b61182d576040517f08c379a00000000000000000000000000000000000000000000000000000000081526004016118249061385e565b60405180910390fd5b6000600260008573ffffffffffffffffffffffffffffffffffffffff1673ffffffffffffffffffffffffffffffffffffffff168152602001908152602001600020600084815260200190815260200160002060020154116118c3576040517f08c379a00000000000000000000000000000000000000000000000000000000081526004016118ba906137be565b60405180910390fd5b6000600560008373ffffffffffffffffffffffffffffffffffffffff1673ffffffffffffffffffffffffffffffffffffffff16815260200190815260200160002060008573ffffffffffffffffffffffffffffffffffffffff1673ffffffffffffffffffffffffffffffffffffffff1681526020019081526020016000206000848152602001908152602001600020600101541180156119f357506000600560008373ffffffffffffffffffffffffffffffffffffffff1673ffffffffffffffffffffffffffffffffffffffff16815260200190815260200160002060008573ffffffffffffffffffffffffffffffffffffffff1673ffffffffffffffffffffffffffffffffffffffff168152602001908152602001600020600084815260200190815260200160002060030154115b611a32576040517f08c379a0000000000000000000000000000000000000000000000000000000008152600401611a29906137fe565b60405180910390fd5b6000600560008373ffffffffffffffffffffffffffffffffffffffff1673ffffffffffffffffffffffffffffffffffffffff16815260200190815260200160002060008573ffffffffffffffffffffffffffffffffffffffff1673ffffffffffffffffffffffffffffffffffffffff1681526020019081526020016000206000848152602001908152602001600020600201549050804210158015611b725750600560008373ffffffffffffffffffffffffffffffffffffffff1673ffffffffffffffffffffffffffffffffffffffff16815260200190815260200160002060008573ffffffffffffffffffffffffffffffffffffffff1673ffffffffffffffffffffffffffffffffffffffff16815260200190815260200160002060008481526020019081526020016000206003015481611b6e91906139c4565b4211155b611bb1576040517f08c379a0000000000000000000000000000000000000000000000000000000008152600401611ba8906137fe565b60405180910390fd5b611d368585858533600560008973ffffffffffffffffffffffffffffffffffffffff1673ffffffffffffffffffffffffffffffffffffffff16815260200190815260200160002060008b73ffffffffffffffffffffffffffffffffffffffff1673ffffffffffffffffffffffffffffffffffffffff16815260200190815260200160002060008a815260200190815260200160002060000160009054906101000a900473ffffffffffffffffffffffffffffffffffffffff16600560008a73ffffffffffffffffffffffffffffffffffffffff1673ffffffffffffffffffffffffffffffffffffffff16815260200190815260200160002060008c73ffffffffffffffffffffffffffffffffffffffff1673ffffffffffffffffffffffffffffffffffffffff16815260200190815260200160002060008b8152602001908152602001600020600101546040518060400160405280600681526020017f61636365707400000000000000000000000000000000000000000000000000008152506127fd565b5050505050565b606060008060003373ffffffffffffffffffffffffffffffffffffffff1673ffffffffffffffffffffffffffffffffffffffff168152602001908152602001600020805480602002602001604051908101604052809291908181526020016000905b82821015611e3b5783829060005260206000209060030201604051806060016040529081600082015481526020016001820160009054906101000a900473ffffffffffffffffffffffffffffffffffffffff1673ffffffffffffffffffffffffffffffffffffffff1673ffffffffffffffffffffffffffffffffffffffff16815260200160028201548152505081526020019060010190611d9f565b505050509050600080600090505b8251811015611f5857600060026000858481518110611e91577f4e487b7100000000000000000000000000000000000000000000000000000000600052603260045260246000fd5b60200260200101516020015173ffffffffffffffffffffffffffffffffffffffff1673ffffffffffffffffffffffffffffffffffffffff1681526020019081526020016000206000858481518110611f12577f4e487b7100000000000000000000000000000000000000000000000000000000600052603260045260246000fd5b6020026020010151604001518152602001908152602001600020600201541115611f45578180611f4190613b66565b9250505b8080611f5090613b66565b915050611e49565b5060008167ffffffffffffffff811115611f9b577f4e487b7100000000000000000000000000000000000000000000000000000000600052604160045260246000fd5b604051908082528060200260200182016040528015611fd457816020015b611fc1612c53565b815260200190600190039081611fb95790505b509050600080600090505b845181101561217357600060026000878481518110612027577f4e487b7100000000000000000000000000000000000000000000000000000000600052603260045260246000fd5b60200260200101516020015173ffffffffffffffffffffffffffffffffffffffff1673ffffffffffffffffffffffffffffffffffffffff16815260200190815260200160002060008784815181106120a8577f4e487b7100000000000000000000000000000000000000000000000000000000600052603260045260246000fd5b602002602001015160400151815260200190815260200160002060020154111561216057848181518110612105577f4e487b7100000000000000000000000000000000000000000000000000000000600052603260045260246000fd5b6020026020010151838381518110612146577f4e487b7100000000000000000000000000000000000000000000000000000000600052603260045260246000fd5b6020026020010181905250818061215c90613b66565b9250505b808061216b90613b66565b915050611fdf565b508194505050505090565b6003602052816000526040600020818154811061219a57600080fd5b9060005260206000209060030201600091509150508060000154908060010160009054906101000a900473ffffffffffffffffffffffffffffffffffffffff16908060020154905083565b6006602052826000526040600020602052816000526040600020818154811061220d57600080fd5b90600052602060002001600092509250509054906101000a900473ffffffffffffffffffffffffffffffffffffffff1681565b61224c8989338a611680565b61228b576040517f08c379a00000000000000000000000000000000000000000000000000000000081526004016122829061385e565b60405180910390fd5b6040518060e001604052803373ffffffffffffffffffffffffffffffffffffffff1681526020018773ffffffffffffffffffffffffffffffffffffffff168152602001868152602001858152602001848152602001838152602001821515815250600260008a73ffffffffffffffffffffffffffffffffffffffff1673ffffffffffffffffffffffffffffffffffffffff168152602001908152602001600020600089815260200190815260200160002060008201518160000160006101000a81548173ffffffffffffffffffffffffffffffffffffffff021916908373ffffffffffffffffffffffffffffffffffffffff16021790555060208201518160010160006101000a81548173ffffffffffffffffffffffffffffffffffffffff021916908373ffffffffffffffffffffffffffffffffffffffff16021790555060408201518160020155606082015181600301556080820151816004015560a0820151816005015560c08201518160060160006101000a81548160ff021916908315150217905550905050600160003373ffffffffffffffffffffffffffffffffffffffff1673ffffffffffffffffffffffffffffffffffffffff16815260200190815260200160002060008973ffffffffffffffffffffffffffffffffffffffff1673ffffffffffffffffffffffffffffffffffffffff168152602001908152602001600020600088815260200190815260200160002060009054906101000a900460ff1661264f5760018060003373ffffffffffffffffffffffffffffffffffffffff1673ffffffffffffffffffffffffffffffffffffffff16815260200190815260200160002060008a73ffffffffffffffffffffffffffffffffffffffff1673ffffffffffffffffffffffffffffffffffffffff168152602001908152602001600020600089815260200190815260200160002060006101000a81548160ff0219169083151502179055506000803373ffffffffffffffffffffffffffffffffffffffff1673ffffffffffffffffffffffffffffffffffffffff16815260200190815260200160002060405180606001604052808b81526020018a73ffffffffffffffffffffffffffffffffffffffff1681526020018981525090806001815401808255809150506001900390600052602060002090600302016000909190919091506000820151816000015560208201518160010160006101000a81548173ffffffffffffffffffffffffffffffffffffffff021916908373ffffffffffffffffffffffffffffffffffffffff1602179055506040820151816002015550505b6000600660008a73ffffffffffffffffffffffffffffffffffffffff1673ffffffffffffffffffffffffffffffffffffffff168152602001908152602001600020600089815260200190815260200160002080549050111561278057600067ffffffffffffffff8111156126ec577f4e487b7100000000000000000000000000000000000000000000000000000000600052604160045260246000fd5b60405190808252806020026020018201604052801561271a5781602001602082028036833780820191505090505b50600660008a73ffffffffffffffffffffffffffffffffffffffff1673ffffffffffffffffffffffffffffffffffffffff1681526020019081526020016000206000898152602001908152602001600020908051906020019061277e929190612c8a565b505b3373ffffffffffffffffffffffffffffffffffffffff16878973ffffffffffffffffffffffffffffffffffffffff167f8f9d6dfb505d358c405ed2834ac0d248ac62bb760984007279b59c9d83c604eb898989898989426040516127ea97969594939291906136f0565b60405180910390a4505050505050505050565b6128098386868561295d565b858773ffffffffffffffffffffffffffffffffffffffff167faa13ca3c222b56b5f504c2747a50ea19d99e3d162436e2da0d2324946e1f105e87878787874260405161285a969594939291906134c9565b60405180910390a36102d18814156128e0578673ffffffffffffffffffffffffffffffffffffffff166323b872dd8587896040518463ffffffff1660e01b81526004016128a993929190613531565b600060405180830381600087803b1580156128c357600080fd5b505af11580156128d7573d6000803e3d6000fd5b50505050612953565b8673ffffffffffffffffffffffffffffffffffffffff1663f242432a85878960016040518563ffffffff1660e01b81526004016129209493929190613568565b600060405180830381600087803b15801561293a57600080fd5b505af115801561294e573d6000803e3d6000fd5b505050505b5050505050505050565b6129e0846323b872dd60e01b85858560405160240161297e93929190613531565b604051602081830303815290604052907bffffffffffffffffffffffffffffffffffffffffffffffffffffffff19166020820180517bffffffffffffffffffffffffffffffffffffffffffffffffffffffff83818316178352505050506129e6565b50505050565b6000612a48826040518060400160405280602081526020017f5361666545524332303a206c6f772d6c6576656c2063616c6c206661696c65648152508573ffffffffffffffffffffffffffffffffffffffff16612aad9092919063ffffffff16565b9050600081511115612aa85780806020019051810190612a689190612eb2565b612aa7576040517f08c379a0000000000000000000000000000000000000000000000000000000008152600401612a9e9061383e565b60405180910390fd5b5b505050565b6060612abc8484600085612ac5565b90509392505050565b606082471015612b0a576040517f08c379a0000000000000000000000000000000000000000000000000000000008152600401612b01906137de565b60405180910390fd5b612b1385612bd9565b612b52576040517f08c379a0000000000000000000000000000000000000000000000000000000008152600401612b499061381e565b60405180910390fd5b6000808673ffffffffffffffffffffffffffffffffffffffff168587604051612b7b9190613497565b60006040518083038185875af1925050503d8060008114612bb8576040519150601f19603f3d011682016040523d82523d6000602084013e612bbd565b606091505b5091509150612bcd828286612bec565b92505050949350505050565b600080823b905060008111915050919050565b60608315612bfc57829050612c4c565b600083511115612c0f5782518084602001fd5b816040517f08c379a0000000000000000000000000000000000000000000000000000000008152600401612c43919061379c565b60405180910390fd5b9392505050565b604051806060016040528060008152602001600073ffffffffffffffffffffffffffffffffffffffff168152602001600081525090565b828054828255906000526020600020908101928215612d03579160200282015b82811115612d025782518260006101000a81548173ffffffffffffffffffffffffffffffffffffffff021916908373ffffffffffffffffffffffffffffffffffffffff16021790555091602001919060010190612caa565b5b509050612d109190612d14565b5090565b5b80821115612d2d576000816000905550600101612d15565b5090565b600081359050612d4081613d8c565b92915050565b600081519050612d5581613d8c565b92915050565b600081359050612d6a81613da3565b92915050565b600081519050612d7f81613da3565b92915050565b600081359050612d9481613dba565b92915050565b600081519050612da981613dba565b92915050565b600060208284031215612dc157600080fd5b6000612dcf84828501612d46565b91505092915050565b600080600060608486031215612ded57600080fd5b6000612dfb86828701612d31565b9350506020612e0c86828701612d31565b9250506040612e1d86828701612d85565b9150509250925092565b60008060408385031215612e3a57600080fd5b6000612e4885828601612d31565b9250506020612e5985828601612d85565b9150509250929050565b600080600060608486031215612e7857600080fd5b6000612e8686828701612d31565b9350506020612e9786828701612d85565b9250506040612ea886828701612d85565b9150509250925092565b600060208284031215612ec457600080fd5b6000612ed284828501612d70565b91505092915050565b600060208284031215612eed57600080fd5b6000612efb84828501612d9a565b91505092915050565b60008060008060808587031215612f1a57600080fd5b6000612f2887828801612d85565b9450506020612f3987828801612d31565b9350506040612f4a87828801612d31565b9250506060612f5b87828801612d85565b91505092959194509250565b600080600060608486031215612f7c57600080fd5b6000612f8a86828701612d85565b9350506020612f9b86828701612d31565b9250506040612fac86828701612d85565b9150509250925092565b60008060008060808587031215612fcc57600080fd5b6000612fda87828801612d85565b9450506020612feb87828801612d31565b9350506040612ffc87828801612d85565b925050606061300d87828801612d31565b91505092959194509250565b600080600080600080600060e0888a03121561303457600080fd5b60006130428a828b01612d85565b97505060206130538a828b01612d31565b96505060406130648a828b01612d85565b95505060606130758a828b01612d31565b94505060806130868a828b01612d85565b93505060a06130978a828b01612d85565b92505060c06130a88a828b01612d85565b91505092959891949750929550565b60008060008060008060008060006101208a8c0312156130d657600080fd5b60006130e48c828d01612d85565b99505060206130f58c828d01612d31565b98505060406131068c828d01612d85565b97505060606131178c828d01612d31565b96505060806131288c828d01612d85565b95505060a06131398c828d01612d85565b94505060c061314a8c828d01612d85565b93505060e061315b8c828d01612d85565b92505061010061316d8c828d01612d5b565b9150509295985092959850929598565b6000806000806080858703121561319357600080fd5b60006131a187828801612d85565b94505060206131b287828801612d31565b93505060406131c387828801612d85565b92505060606131d487828801612d85565b91505092959194509250565b60006131ec8383613437565b60608301905092915050565b61320181613ad9565b82525050565b61321081613ad9565b82525050565b600061322182613958565b61322b8185613986565b935061323683613948565b8060005b8381101561326757815161324e88826131e0565b975061325983613979565b92505060018101905061323a565b5085935050505092915050565b61327d81613aeb565b82525050565b600061328e82613963565b61329881856139a8565b93506132a8818560208601613b33565b80840191505092915050565b6132bd81613b21565b82525050565b60006132ce8261396e565b6132d881856139b3565b93506132e8818560208601613b33565b6132f181613c0d565b840191505092915050565b60006133096005836139b3565b915061331482613c1e565b602082019050919050565b600061332c6008836139b3565b915061333782613c47565b602082019050919050565b600061334f6026836139b3565b915061335a82613c70565b604082019050919050565b60006133726006836139b3565b915061337d82613cbf565b602082019050919050565b6000613395600083613997565b91506133a082613ce8565b600082019050919050565b60006133b86000836139b3565b91506133c382613ce8565b600082019050919050565b60006133db601d836139b3565b91506133e682613ceb565b602082019050919050565b60006133fe602a836139b3565b915061340982613d14565b604082019050919050565b6000613421601c836139b3565b915061342c82613d63565b602082019050919050565b60608201600082015161344d6000850182613479565b50602082015161346060208501826131f8565b5060408201516134736040850182613479565b50505050565b61348281613b17565b82525050565b61349181613b17565b82525050565b60006134a38284613283565b915081905092915050565b60006020820190506134c36000830184613207565b92915050565b600060c0820190506134de6000830189613207565b6134eb6020830188613207565b6134f86040830187613207565b6135056060830186613488565b818103608083015261351781856132c3565b905061352660a0830184613488565b979650505050505050565b60006060820190506135466000830186613207565b6135536020830185613207565b6135606040830184613488565b949350505050565b600060a08201905061357d6000830187613207565b61358a6020830186613207565b6135976040830185613488565b6135a460608301846132b4565b81810360808301526135b581613388565b905095945050505050565b600060e0820190506135d5600083018a613207565b6135e26020830189613207565b6135ef6040830188613488565b6135fc6060830187613488565b6136096080830186613488565b61361660a0830185613488565b61362360c0830184613274565b98975050505050505050565b60006040820190506136446000830185613207565b6136516020830184613488565b9392505050565b600060808201905061366d6000830187613207565b61367a6020830186613488565b6136876040830185613488565b6136946060830184613488565b95945050505050565b600060a0820190506136b26000830188613207565b6136bf6020830187613488565b6136cc6040830186613488565b6136d96060830185613488565b6136e66080830184613488565b9695505050505050565b600060e082019050613705600083018a613207565b6137126020830189613488565b61371f6040830188613488565b61372c6060830187613488565b6137396080830186613488565b61374660a0830185613274565b61375360c0830184613488565b98975050505050505050565b600060208201905081810360008301526137798184613216565b905092915050565b60006020820190506137966000830184613274565b92915050565b600060208201905081810360008301526137b681846132c3565b905092915050565b600060208201905081810360008301526137d78161331f565b9050919050565b600060208201905081810360008301526137f781613342565b9050919050565b60006020820190508181036000830152613817816133ab565b9050919050565b60006020820190508181036000830152613837816133ce565b9050919050565b60006020820190508181036000830152613857816133f1565b9050919050565b6000602082019050818103600083015261387781613414565b9050919050565b60006020820190506138936000830184613488565b92915050565b60006060820190506138ae6000830186613488565b6138bb6020830185613207565b6138c86040830184613488565b949350505050565b60006060820190506138e56000830185613488565b81810360208301526138f6816132fc565b90506139056040830184613488565b9392505050565b60006060820190506139216000830185613488565b818103602083015261393281613365565b90506139416040830184613488565b9392505050565b6000819050602082019050919050565b600081519050919050565b600081519050919050565b600081519050919050565b6000602082019050919050565b600082825260208201905092915050565b600082825260208201905092915050565b600081905092915050565b600082825260208201905092915050565b60006139cf82613b17565b91506139da83613b17565b9250827fffffffffffffffffffffffffffffffffffffffffffffffffffffffffffffffff03821115613a0f57613a0e613baf565b5b828201905092915050565b6000613a2582613b17565b9150613a3083613b17565b925082613a4057613a3f613bde565b5b828204905092915050565b6000613a5682613b17565b9150613a6183613b17565b9250817fffffffffffffffffffffffffffffffffffffffffffffffffffffffffffffffff0483118215151615613a9a57613a99613baf565b5b828202905092915050565b6000613ab082613b17565b9150613abb83613b17565b925082821015613ace57613acd613baf565b5b828203905092915050565b6000613ae482613af7565b9050919050565b60008115159050919050565b600073ffffffffffffffffffffffffffffffffffffffff82169050919050565b6000819050919050565b6000613b2c82613b17565b9050919050565b60005b83811015613b51578082015181840152602081019050613b36565b83811115613b60576000848401525b50505050565b6000613b7182613b17565b91507fffffffffffffffffffffffffffffffffffffffffffffffffffffffffffffffff821415613ba457613ba3613baf565b5b600182019050919050565b7f4e487b7100000000000000000000000000000000000000000000000000000000600052601160045260246000fd5b7f4e487b7100000000000000000000000000000000000000000000000000000000600052601260045260246000fd5b6000601f19601f8301169050919050565b7f6f72646572000000000000000000000000000000000000000000000000000000600082015250565b7f4e6f742053616c65000000000000000000000000000000000000000000000000600082015250565b7f416464726573733a20696e73756666696369656e742062616c616e636520666f60008201527f722063616c6c0000000000000000000000000000000000000000000000000000602082015250565b7f6f66666572730000000000000000000000000000000000000000000000000000600082015250565b50565b7f416464726573733a2063616c6c20746f206e6f6e2d636f6e7472616374000000600082015250565b7f5361666545524332303a204552433230206f7065726174696f6e20646964206e60008201527f6f74207375636365656400000000000000000000000000000000000000000000602082015250565b7f4572726f722c20796f7520617265206e6f7420746865206f776e657200000000600082015250565b613d9581613ad9565b8114613da057600080fd5b50565b613dac81613aeb565b8114613db757600080fd5b50565b613dc381613b17565b8114613dce57600080fd5b5056fea2646970667358221220bc116ad43ceca9f8a18a3cc001c3e6127c6df476c4c1d8a70355ade1d57c96a264736f6c63430008040033",
  "immutableReferences": {},
  "source": "// SPDX-License-Identifier: MIT\npragma solidity <=0.8.4;\n\nimport \"@openzeppelin/contracts/token/ERC20/utils/SafeERC20.sol\";\nimport \"@openzeppelin/contracts/token/ERC721/IERC721.sol\";\nimport \"@openzeppelin/contracts/token/ERC1155/IERC1155.sol\";\nimport \"@openzeppelin/contracts/access/Ownable.sol\";\n\ncontract MarketPlace {\n    // event\n    event ORDER(address indexed ct, uint256 indexed tokenId, address indexed who, address unit, uint256 openPrice, uint256 closePrice, uint256 startTime, uint256 duration, bool keep, uint256 timestamp);\n    event MATCH(address indexed ct, uint256 indexed tokenId, address buyer, address seller, address unit, uint256 matchPrice, string data, uint256 timestamp);\n    event OFFERS(address indexed ct, uint256 indexed tokenId, address indexed who, address unit, uint offersPrice, uint256 startTime, uint256 duration, uint timestamp);\n    event UPDATE(address indexed ct, uint256 indexed tokenId, address indexed who, uint256 price, string data, uint256 timestamp);\n    // struct down auction\n    struct Order {\n        address seller; // seller's address\n        address unit; // unit's address. e.g UCC's address\n        uint256 openPrice; // open price\n        uint256 closePrice; // close price\n        uint256 startTime; // start time\n        uint256 duration; // duration\n        bool keep; // keep sale or stop when out of time\n    }\n    // struct up auction\n    struct Offers {\n        address unit; // unit's address. e.g UCC's address\n        uint256 offersPrice; // offers's price\n        uint256 startTime; // start time\n        uint256 duration; // duration\n    }\n    // NFT's info\n    struct Path {\n        uint256 ver; // 721 || 1155\n        address ct; // NFT's contract address\n        uint256 tokenId; // NFT's ID\n    }\n    // get user's order. Call: myOrder[user's address]\n    mapping(address => Path[]) public myOrder;\n    // private. get pushedorder of user for a NFT. call: pushedOrder[user's address][nft's contract address][NFT's ID]\n    mapping(address => mapping(address => mapping(uint256 => bool))) private pushedOrder;\n    // get orders of NFT. Call: order[NFT's contract address][NFT's ID]\n    mapping(address => mapping(uint256 => Order)) public order;\n    // get my NFT path. Call: myOffers[user's address] \n    mapping(address => Path[]) public myOffers;\n    // Private. Get pushed Offers of user for a token. Call: pushedOffers[user's address][NFT's contract address][NFT's ID]\n    mapping(address => mapping(address => mapping(uint256 => bool))) private pushedOffers;\n    // Get user's offers. call: offers[user's address][NFT's contract address][NFT's ID]\n    mapping(address => mapping(address => mapping(uint256 => Offers))) public offers;\n    // get offers list of a NFT. Call: listOffers[NFT's contract address][NFT's ID]\n    mapping(address => mapping(uint256 => address[])) public listOffers;\n    // check sale status: sale or not sale\n    // _ver: 721 || 1155\n    // _ct: NFT's contract address\n    // _tokenId: NFT's ID\n    modifier isSale(uint _ver, address _ct, uint _tokenId) {\n        require(!owner(_ver, _ct, msg.sender, _tokenId), \"\");\n        require(order[_ct][_tokenId].openPrice > 0, \"Not Sale\");\n        _;\n    }\n    // check NFT's owner\n    // _ver: 721 || 1155\n    // _ct: NFT's contract address\n    // _user: user's address\n    // _tokenId: token's ID\n    function owner(uint _ver, address _ct, address _user, uint _tokenId) public view returns(bool isOwner){\n        if (_ver == 721) return IERC721(_ct).ownerOf(_tokenId) == _user;\n        return IERC1155(_ct).balanceOf(_user, _tokenId) == 1;\n    }\n    // auction and market\n    // _ver: 721 || 1155\n    // _ct: NFT's contract address\n    // _tokenId: token's ID\n    // _unit: unit's address ( BUSD, UCC...)\n    // _openPrice: open price\n    // _closePrice: close price\n    // _startTime: start time\n    // _duration: duration of auction\n    // _keep: keep auction when out of auction's time\n    function sell(uint _ver, address _ct, uint256 _tokenId, address _unit, uint256 _openPrice, uint256 _closePrice, uint256 _startTime, uint256 _duration, bool _keep) public {\n        require(owner(_ver, _ct, msg.sender, _tokenId), \"Error, you are not the owner\");\n        order[_ct][_tokenId] = Order(msg.sender, _unit, _openPrice, _closePrice, _startTime, _duration, _keep);\n\n        if (!pushedOrder[msg.sender][_ct][_tokenId]){\n            pushedOrder[msg.sender][_ct][_tokenId] = true;\n            myOrder[msg.sender].push(Path(_ver, _ct, _tokenId));\n        }\n\n        if (listOffers[_ct][_tokenId].length > 0){\n            listOffers[_ct][_tokenId] = new address[](0);\n        }\n        emit ORDER(_ct , _tokenId, msg.sender, _unit,_openPrice, _closePrice, _startTime, _duration, _keep, block.timestamp);\n    }\n    // Update order\n    // _ver: 721 || 1155\n    // _ct: NFT's contract address\n    // _tokenId: token's ID\n    // _openPrice: open price\n    function updateOrder(uint _ver, address _ct, uint256 _tokenId, uint256 _openPrice) public {\n        require(owner(_ver, _ct, msg.sender, _tokenId), \"Error, you are not the owner\");\n        order[_ct][_tokenId].openPrice = _openPrice;\n        emit UPDATE(_ct , _tokenId, msg.sender, _openPrice, \"order\", block.timestamp);\n    }\n    // buyer buy NFT of down auction and market\n    // _ver: 721 || 1155\n    // _ct: NFT's contract address\n    // _tokenId: token's ID\n    function buy(uint _ver, address _ct, uint256 _tokenId) public isSale(_ver, _ct, _tokenId) {\n        Order memory _order = order[_ct][_tokenId];\n        require(owner(_ver, _ct, _order.seller, _tokenId), \"\");\n\n        uint256 t = block.timestamp;\n\n        require(t >= _order.startTime && (t <= _order.startTime + _order.duration || _order.keep), \"\");\n        require(_order.closePrice != ~uint(0) && _order.openPrice != ~uint(0), \"\");\n\n        uint256 rPrice = _order.openPrice;\n        if (_order.openPrice >= _order.closePrice) {\n            if (_order.duration > 0) {\n                if (t >= _order.startTime + _order.duration) {\n                    rPrice = _order.closePrice;\n                } else {\n                    rPrice = _order.openPrice - ((t - _order.startTime) * (_order.openPrice - _order.closePrice) / _order.duration);\n                }\n            }\n        } else {\n            rPrice = _order.closePrice;\n        }\n        swap(_ver, _ct, _tokenId, msg.sender, _order.seller, _order.unit, rPrice, \"buy\");\n    }\n    // buyer set an offer for up auction\n    // _ver: 721 || 1155\n    // _ct: NFT's contract address\n    // _tokenId: token's ID\n    // _unit: unit's address ( BUSD, UCC...)\n    // _offersPrice: offers price\n    // _startTime: start time\n    // _duration: duration of auction\n    function setOffers(uint _ver, address _ct, uint256 _tokenId, address _unit, uint _offersPrice, uint256 _startTime, uint256 _duration) public isSale(_ver, _ct, _tokenId) {\n        if (!pushedOffers[msg.sender][_ct][_tokenId]){\n            pushedOffers[msg.sender][_ct][_tokenId] = true;\n            myOffers[msg.sender].push(Path(_ver, _ct, _tokenId));\n        }\n\n        offers[msg.sender][_ct][_tokenId] = Offers(_unit, _offersPrice, _startTime, _duration);\n        \n        if (_offersPrice != 0){\n            listOffers[_ct][_tokenId].push(msg.sender);\n        }\n        emit OFFERS(_ct, _tokenId, msg.sender, _unit, _offersPrice, _startTime, _duration, block.timestamp);\n    }\n    // buyer update an offer for up auction\n    // _ver: 721 || 1155\n    // _ct: NFT's contract address\n    // _tokenId: token's ID\n    // _unit: unit's address ( BUSD, UCC...)\n    // _offersPrice: offers price\n    // _startTime: start time\n    // _duration: duration of auction\n    function updateOffers(address _ct, uint256 _tokenId, uint256 _offersPrice) public {\n        require(offers[msg.sender][_ct][_tokenId].duration > 0 && offers[msg.sender][_ct][_tokenId].startTime > 0, \"\");\n        offers[msg.sender][_ct][_tokenId].offersPrice = _offersPrice;\n        emit UPDATE(_ct , _tokenId, msg.sender, _offersPrice, \"offers\", block.timestamp);\n    }\n    // owner accept an offers\n    function accept(uint _ver, address _ct, uint256 _tokenId, address _buyer) public {\n        require(owner(_ver, _ct, msg.sender, _tokenId), \"Error, you are not the owner\");\n        require(order[_ct][_tokenId].openPrice > 0, \"Not Sale\");\n        require(offers[_buyer][_ct][_tokenId].offersPrice > 0 && offers[_buyer][_ct][_tokenId].duration > 0, \"\");\n        uint256 start = offers[_buyer][_ct][_tokenId].startTime;\n        require(block.timestamp >= start && block.timestamp <= start + offers[_buyer][_ct][_tokenId].duration, \"\");\n\n        swap(_ver, _ct, _tokenId, _buyer, msg.sender, offers[_buyer][_ct][_tokenId].unit, offers[_buyer][_ct][_tokenId].offersPrice, \"accept\");\n    }\n    // private function, swap nft\n    function swap(uint _ver, address _ct, uint256 _tokenId, address _buyer, address _seller, address _unit, uint256 _matchPrice, string memory _data) private {\n        SafeERC20.safeTransferFrom(IERC20(_unit), _buyer, _seller, _matchPrice);\n                \n        emit MATCH(_ct, _tokenId, _buyer, _seller, _unit, _matchPrice, _data, block.timestamp);\n        if (_ver == 721)return IERC721(_ct).transferFrom(_seller, _buyer, _tokenId);\n        return IERC1155(_ct).safeTransferFrom(_seller, _buyer, _tokenId, 1, \"\");\n    }\n    // get user's order\n    function getOrder() public view returns (Path[] memory _filtedPath){\n        Path[] memory path = myOrder[msg.sender];\n        uint256 resultCount;\n\n        for (uint i = 0; i < path.length; i++){\n            if (order[path[i].ct][path[i].tokenId].openPrice > 0){\n                resultCount++;\n            }\n        }\n        \n        Path[] memory filtedPath = new Path[](resultCount);\n        uint256 j;\n        \n        for (uint i = 0; i < path.length; i++){\n            if (order[path[i].ct][path[i].tokenId].openPrice > 0){\n                filtedPath[j] = path[i];\n                j++;\n            }\n        }\n        return filtedPath;\n    }\n    // get user's offers\n    function getOffers() public view returns (Path[] memory _filtedPath) {\n        Path[] memory path = myOffers[msg.sender];\n        uint256 resultCount;\n\n        for (uint i = 0; i < path.length; i++){\n            if (offers[msg.sender][path[i].ct][path[i].tokenId].offersPrice > 0){\n                resultCount++;\n            }\n        }\n        \n        Path[] memory filtedPath = new Path[](resultCount);\n        uint256 j;\n        \n        for (uint i = 0; i < path.length; i++){\n            if (offers[msg.sender][path[i].ct][path[i].tokenId].offersPrice > 0){\n                filtedPath[j] = path[i];\n                j++;\n            }\n        }\n        return filtedPath;\n    }\n}\n",
  "sourcePath": "/Users/macbookpro/Projects/eth-todo-list/contracts/MartketPlace.sol",
  "compiler": {
    "name": "solc",
    "version": "0.8.4+commit.c7e474f2.Emscripten.clang"
  },
  "schemaVersion": "3.4.3",
  "updatedAt": "2022-01-06T09:18:13.143Z",
  "networkType": "ethereum",
  "devdoc": {
    "kind": "dev",
    "methods": {},
    "version": 1
  },
  "userdoc": {
    "kind": "user",
    "methods": {},
    "version": 1
  }
}