{
  "contractName": "TorNFT",
  "abi": [
    {
      "inputs": [],
      "stateMutability": "nonpayable",
      "type": "constructor"
    },
    {
      "anonymous": false,
      "inputs": [
        {
          "indexed": true,
          "internalType": "address",
          "name": "owner",
          "type": "address"
        },
        {
          "indexed": true,
          "internalType": "address",
          "name": "approved",
          "type": "address"
        },
        {
          "indexed": true,
          "internalType": "uint256",
          "name": "tokenId",
          "type": "uint256"
        }
      ],
      "name": "Approval",
      "type": "event"
    },
    {
      "anonymous": false,
      "inputs": [
        {
          "indexed": true,
          "internalType": "address",
          "name": "owner",
          "type": "address"
        },
        {
          "indexed": true,
          "internalType": "address",
          "name": "operator",
          "type": "address"
        },
        {
          "indexed": false,
          "internalType": "bool",
          "name": "approved",
          "type": "bool"
        }
      ],
      "name": "ApprovalForAll",
      "type": "event"
    },
    {
      "anonymous": false,
      "inputs": [
        {
          "indexed": true,
          "internalType": "address",
          "name": "previousOwner",
          "type": "address"
        },
        {
          "indexed": true,
          "internalType": "address",
          "name": "newOwner",
          "type": "address"
        }
      ],
      "name": "OwnershipTransferred",
      "type": "event"
    },
    {
      "anonymous": false,
      "inputs": [
        {
          "indexed": true,
          "internalType": "address",
          "name": "from",
          "type": "address"
        },
        {
          "indexed": true,
          "internalType": "address",
          "name": "to",
          "type": "address"
        },
        {
          "indexed": true,
          "internalType": "uint256",
          "name": "tokenId",
          "type": "uint256"
        }
      ],
      "name": "Transfer",
      "type": "event"
    },
    {
      "inputs": [
        {
          "internalType": "address",
          "name": "to",
          "type": "address"
        },
        {
          "internalType": "uint256",
          "name": "tokenId",
          "type": "uint256"
        }
      ],
      "name": "approve",
      "outputs": [],
      "stateMutability": "nonpayable",
      "type": "function"
    },
    {
      "inputs": [
        {
          "internalType": "address",
          "name": "owner",
          "type": "address"
        }
      ],
      "name": "balanceOf",
      "outputs": [
        {
          "internalType": "uint256",
          "name": "",
          "type": "uint256"
        }
      ],
      "stateMutability": "view",
      "type": "function",
      "constant": true
    },
    {
      "inputs": [
        {
          "internalType": "uint256",
          "name": "tokenId",
          "type": "uint256"
        }
      ],
      "name": "getApproved",
      "outputs": [
        {
          "internalType": "address",
          "name": "",
          "type": "address"
        }
      ],
      "stateMutability": "view",
      "type": "function",
      "constant": true
    },
    {
      "inputs": [
        {
          "internalType": "address",
          "name": "owner",
          "type": "address"
        },
        {
          "internalType": "address",
          "name": "operator",
          "type": "address"
        }
      ],
      "name": "isApprovedForAll",
      "outputs": [
        {
          "internalType": "bool",
          "name": "",
          "type": "bool"
        }
      ],
      "stateMutability": "view",
      "type": "function",
      "constant": true
    },
    {
      "inputs": [],
      "name": "name",
      "outputs": [
        {
          "internalType": "string",
          "name": "",
          "type": "string"
        }
      ],
      "stateMutability": "view",
      "type": "function",
      "constant": true
    },
    {
      "inputs": [],
      "name": "owner",
      "outputs": [
        {
          "internalType": "address",
          "name": "",
          "type": "address"
        }
      ],
      "stateMutability": "view",
      "type": "function",
      "constant": true
    },
    {
      "inputs": [
        {
          "internalType": "uint256",
          "name": "tokenId",
          "type": "uint256"
        }
      ],
      "name": "ownerOf",
      "outputs": [
        {
          "internalType": "address",
          "name": "",
          "type": "address"
        }
      ],
      "stateMutability": "view",
      "type": "function",
      "constant": true
    },
    {
      "inputs": [],
      "name": "renounceOwnership",
      "outputs": [],
      "stateMutability": "nonpayable",
      "type": "function"
    },
    {
      "inputs": [
        {
          "internalType": "address",
          "name": "from",
          "type": "address"
        },
        {
          "internalType": "address",
          "name": "to",
          "type": "address"
        },
        {
          "internalType": "uint256",
          "name": "tokenId",
          "type": "uint256"
        }
      ],
      "name": "safeTransferFrom",
      "outputs": [],
      "stateMutability": "nonpayable",
      "type": "function"
    },
    {
      "inputs": [
        {
          "internalType": "address",
          "name": "from",
          "type": "address"
        },
        {
          "internalType": "address",
          "name": "to",
          "type": "address"
        },
        {
          "internalType": "uint256",
          "name": "tokenId",
          "type": "uint256"
        },
        {
          "internalType": "bytes",
          "name": "_data",
          "type": "bytes"
        }
      ],
      "name": "safeTransferFrom",
      "outputs": [],
      "stateMutability": "nonpayable",
      "type": "function"
    },
    {
      "inputs": [
        {
          "internalType": "address",
          "name": "operator",
          "type": "address"
        },
        {
          "internalType": "bool",
          "name": "approved",
          "type": "bool"
        }
      ],
      "name": "setApprovalForAll",
      "outputs": [],
      "stateMutability": "nonpayable",
      "type": "function"
    },
    {
      "inputs": [
        {
          "internalType": "bytes4",
          "name": "interfaceId",
          "type": "bytes4"
        }
      ],
      "name": "supportsInterface",
      "outputs": [
        {
          "internalType": "bool",
          "name": "",
          "type": "bool"
        }
      ],
      "stateMutability": "view",
      "type": "function",
      "constant": true
    },
    {
      "inputs": [],
      "name": "symbol",
      "outputs": [
        {
          "internalType": "string",
          "name": "",
          "type": "string"
        }
      ],
      "stateMutability": "view",
      "type": "function",
      "constant": true
    },
    {
      "inputs": [
        {
          "internalType": "uint256",
          "name": "tokenId",
          "type": "uint256"
        }
      ],
      "name": "tokenURI",
      "outputs": [
        {
          "internalType": "string",
          "name": "",
          "type": "string"
        }
      ],
      "stateMutability": "view",
      "type": "function",
      "constant": true
    },
    {
      "inputs": [
        {
          "internalType": "address",
          "name": "from",
          "type": "address"
        },
        {
          "internalType": "address",
          "name": "to",
          "type": "address"
        },
        {
          "internalType": "uint256",
          "name": "tokenId",
          "type": "uint256"
        }
      ],
      "name": "transferFrom",
      "outputs": [],
      "stateMutability": "nonpayable",
      "type": "function"
    },
    {
      "inputs": [
        {
          "internalType": "address",
          "name": "newOwner",
          "type": "address"
        }
      ],
      "name": "transferOwnership",
      "outputs": [],
      "stateMutability": "nonpayable",
      "type": "function"
    },
    {
      "inputs": [
        {
          "internalType": "address",
          "name": "receiver",
          "type": "address"
        }
      ],
      "name": "mint",
      "outputs": [
        {
          "internalType": "uint256",
          "name": "",
          "type": "uint256"
        }
      ],
      "stateMutability": "nonpayable",
      "type": "function"
    }
  ],
  "bytecode": "0x60806040523480156200001157600080fd5b506040518060400160405280600781526020017f456d6f74696f6e000000000000000000000000000000000000000000000000008152506040518060400160405280600381526020017f454d540000000000000000000000000000000000000000000000000000000000815250816000908051906020019062000096929190620001a6565b508060019080519060200190620000af929190620001a6565b505050620000d2620000c6620000d860201b60201c565b620000e060201b60201c565b620002bb565b600033905090565b6000600660009054906101000a900473ffffffffffffffffffffffffffffffffffffffff16905081600660006101000a81548173ffffffffffffffffffffffffffffffffffffffff021916908373ffffffffffffffffffffffffffffffffffffffff1602179055508173ffffffffffffffffffffffffffffffffffffffff168173ffffffffffffffffffffffffffffffffffffffff167f8be0079c531659141344cd1fd0a4f28419497f9722a3daafe3b4186f6b6457e060405160405180910390a35050565b828054620001b49062000256565b90600052602060002090601f016020900481019282620001d8576000855562000224565b82601f10620001f357805160ff191683800117855562000224565b8280016001018555821562000224579182015b828111156200022357825182559160200191906001019062000206565b5b50905062000233919062000237565b5090565b5b808211156200025257600081600090555060010162000238565b5090565b600060028204905060018216806200026f57607f821691505b602082108114156200028657620002856200028c565b5b50919050565b7f4e487b7100000000000000000000000000000000000000000000000000000000600052602260045260246000fd5b612be980620002cb6000396000f3fe608060405234801561001057600080fd5b506004361061010b5760003560e01c806370a08231116100a2578063a22cb46511610071578063a22cb465146102b8578063b88d4fde146102d4578063c87b56dd146102f0578063e985e9c514610320578063f2fde38b146103505761010b565b806370a0823114610242578063715018a6146102725780638da5cb5b1461027c57806395d89b411461029a5761010b565b806323b872dd116100de57806323b872dd146101aa57806342842e0e146101c65780636352211e146101e25780636a627842146102125761010b565b806301ffc9a71461011057806306fdde0314610140578063081812fc1461015e578063095ea7b31461018e575b600080fd5b61012a60048036038101906101259190611cbe565b61036c565b60405161013791906120c4565b60405180910390f35b61014861044e565b60405161015591906120df565b60405180910390f35b61017860048036038101906101739190611d10565b6104e0565b604051610185919061205d565b60405180910390f35b6101a860048036038101906101a39190611c82565b610565565b005b6101c460048036038101906101bf9190611b7c565b61067d565b005b6101e060048036038101906101db9190611b7c565b6106dd565b005b6101fc60048036038101906101f79190611d10565b6106fd565b604051610209919061205d565b60405180910390f35b61022c60048036038101906102279190611b17565b6107af565b6040516102399190612301565b60405180910390f35b61025c60048036038101906102579190611b17565b610858565b6040516102699190612301565b60405180910390f35b61027a610910565b005b610284610998565b604051610291919061205d565b60405180910390f35b6102a26109c2565b6040516102af91906120df565b60405180910390f35b6102d260048036038101906102cd9190611c46565b610a54565b005b6102ee60048036038101906102e99190611bcb565b610a6a565b005b61030a60048036038101906103059190611d10565b610acc565b60405161031791906120df565b60405180910390f35b61033a60048036038101906103359190611b40565b610b73565b60405161034791906120c4565b60405180910390f35b61036a60048036038101906103659190611b17565b610c07565b005b60007f80ac58cd000000000000000000000000000000000000000000000000000000007bffffffffffffffffffffffffffffffffffffffffffffffffffffffff1916827bffffffffffffffffffffffffffffffffffffffffffffffffffffffff1916148061043757507f5b5e139f000000000000000000000000000000000000000000000000000000007bffffffffffffffffffffffffffffffffffffffffffffffffffffffff1916827bffffffffffffffffffffffffffffffffffffffffffffffffffffffff1916145b80610447575061044682610cff565b5b9050919050565b60606000805461045d90612526565b80601f016020809104026020016040519081016040528092919081815260200182805461048990612526565b80156104d65780601f106104ab576101008083540402835291602001916104d6565b820191906000526020600020905b8154815290600101906020018083116104b957829003601f168201915b5050505050905090565b60006104eb82610d69565b61052a576040517f08c379a000000000000000000000000000000000000000000000000000000000815260040161052190612241565b60405180910390fd5b6004600083815260200190815260200160002060009054906101000a900473ffffffffffffffffffffffffffffffffffffffff169050919050565b6000610570826106fd565b90508073ffffffffffffffffffffffffffffffffffffffff168373ffffffffffffffffffffffffffffffffffffffff1614156105e1576040517f08c379a00000000000000000000000000000000000000000000000000000000081526004016105d8906122c1565b60405180910390fd5b8073ffffffffffffffffffffffffffffffffffffffff16610600610dd5565b73ffffffffffffffffffffffffffffffffffffffff16148061062f575061062e81610629610dd5565b610b73565b5b61066e576040517f08c379a0000000000000000000000000000000000000000000000000000000008152600401610665906121c1565b60405180910390fd5b6106788383610ddd565b505050565b61068e610688610dd5565b82610e96565b6106cd576040517f08c379a00000000000000000000000000000000000000000000000000000000081526004016106c4906122e1565b60405180910390fd5b6106d8838383610f74565b505050565b6106f883838360405180602001604052806000815250610a6a565b505050565b6000806002600084815260200190815260200160002060009054906101000a900473ffffffffffffffffffffffffffffffffffffffff169050600073ffffffffffffffffffffffffffffffffffffffff168173ffffffffffffffffffffffffffffffffffffffff1614156107a6576040517f08c379a000000000000000000000000000000000000000000000000000000000815260040161079d90612201565b60405180910390fd5b80915050919050565b60006107b9610dd5565b73ffffffffffffffffffffffffffffffffffffffff166107d7610998565b73ffffffffffffffffffffffffffffffffffffffff161461082d576040517f08c379a000000000000000000000000000000000000000000000000000000000815260040161082490612261565b60405180910390fd5b61083760076111d0565b600061084360076111e6565b905061084f83826111f4565b80915050919050565b60008073ffffffffffffffffffffffffffffffffffffffff168273ffffffffffffffffffffffffffffffffffffffff1614156108c9576040517f08c379a00000000000000000000000000000000000000000000000000000000081526004016108c0906121e1565b60405180910390fd5b600360008373ffffffffffffffffffffffffffffffffffffffff1673ffffffffffffffffffffffffffffffffffffffff168152602001908152602001600020549050919050565b610918610dd5565b73ffffffffffffffffffffffffffffffffffffffff16610936610998565b73ffffffffffffffffffffffffffffffffffffffff161461098c576040517f08c379a000000000000000000000000000000000000000000000000000000000815260040161098390612261565b60405180910390fd5b6109966000611212565b565b6000600660009054906101000a900473ffffffffffffffffffffffffffffffffffffffff16905090565b6060600180546109d190612526565b80601f01602080910402602001604051908101604052809291908181526020018280546109fd90612526565b8015610a4a5780601f10610a1f57610100808354040283529160200191610a4a565b820191906000526020600020905b815481529060010190602001808311610a2d57829003601f168201915b5050505050905090565b610a66610a5f610dd5565b83836112d8565b5050565b610a7b610a75610dd5565b83610e96565b610aba576040517f08c379a0000000000000000000000000000000000000000000000000000000008152600401610ab1906122e1565b60405180910390fd5b610ac684848484611445565b50505050565b6060610ad782610d69565b610b16576040517f08c379a0000000000000000000000000000000000000000000000000000000008152600401610b0d906122a1565b60405180910390fd5b6000610b206114a1565b90506000815111610b405760405180602001604052806000815250610b6b565b80610b4a846114c1565b604051602001610b5b929190612039565b6040516020818303038152906040525b915050919050565b6000600560008473ffffffffffffffffffffffffffffffffffffffff1673ffffffffffffffffffffffffffffffffffffffff16815260200190815260200160002060008373ffffffffffffffffffffffffffffffffffffffff1673ffffffffffffffffffffffffffffffffffffffff16815260200190815260200160002060009054906101000a900460ff16905092915050565b610c0f610dd5565b73ffffffffffffffffffffffffffffffffffffffff16610c2d610998565b73ffffffffffffffffffffffffffffffffffffffff1614610c83576040517f08c379a0000000000000000000000000000000000000000000000000000000008152600401610c7a90612261565b60405180910390fd5b600073ffffffffffffffffffffffffffffffffffffffff168173ffffffffffffffffffffffffffffffffffffffff161415610cf3576040517f08c379a0000000000000000000000000000000000000000000000000000000008152600401610cea90612121565b60405180910390fd5b610cfc81611212565b50565b60007f01ffc9a7000000000000000000000000000000000000000000000000000000007bffffffffffffffffffffffffffffffffffffffffffffffffffffffff1916827bffffffffffffffffffffffffffffffffffffffffffffffffffffffff1916149050919050565b60008073ffffffffffffffffffffffffffffffffffffffff166002600084815260200190815260200160002060009054906101000a900473ffffffffffffffffffffffffffffffffffffffff1673ffffffffffffffffffffffffffffffffffffffff1614159050919050565b600033905090565b816004600083815260200190815260200160002060006101000a81548173ffffffffffffffffffffffffffffffffffffffff021916908373ffffffffffffffffffffffffffffffffffffffff160217905550808273ffffffffffffffffffffffffffffffffffffffff16610e50836106fd565b73ffffffffffffffffffffffffffffffffffffffff167f8c5be1e5ebec7d5bd14f71427d1e84f3dd0314c0f7b2291e5b200ac8c7c3b92560405160405180910390a45050565b6000610ea182610d69565b610ee0576040517f08c379a0000000000000000000000000000000000000000000000000000000008152600401610ed7906121a1565b60405180910390fd5b6000610eeb836106fd565b90508073ffffffffffffffffffffffffffffffffffffffff168473ffffffffffffffffffffffffffffffffffffffff161480610f5a57508373ffffffffffffffffffffffffffffffffffffffff16610f42846104e0565b73ffffffffffffffffffffffffffffffffffffffff16145b80610f6b5750610f6a8185610b73565b5b91505092915050565b8273ffffffffffffffffffffffffffffffffffffffff16610f94826106fd565b73ffffffffffffffffffffffffffffffffffffffff1614610fea576040517f08c379a0000000000000000000000000000000000000000000000000000000008152600401610fe190612281565b60405180910390fd5b600073ffffffffffffffffffffffffffffffffffffffff168273ffffffffffffffffffffffffffffffffffffffff16141561105a576040517f08c379a000000000000000000000000000000000000000000000000000000000815260040161105190612161565b60405180910390fd5b61106583838361166e565b611070600082610ddd565b6001600360008573ffffffffffffffffffffffffffffffffffffffff1673ffffffffffffffffffffffffffffffffffffffff16815260200190815260200160002060008282546110c0919061243c565b925050819055506001600360008473ffffffffffffffffffffffffffffffffffffffff1673ffffffffffffffffffffffffffffffffffffffff168152602001908152602001600020600082825461111791906123b5565b92505081905550816002600083815260200190815260200160002060006101000a81548173ffffffffffffffffffffffffffffffffffffffff021916908373ffffffffffffffffffffffffffffffffffffffff160217905550808273ffffffffffffffffffffffffffffffffffffffff168473ffffffffffffffffffffffffffffffffffffffff167fddf252ad1be2c89b69c2b068fc378daa952ba7f163c4a11628f55a4df523b3ef60405160405180910390a4505050565b6001816000016000828254019250508190555050565b600081600001549050919050565b61120e828260405180602001604052806000815250611673565b5050565b6000600660009054906101000a900473ffffffffffffffffffffffffffffffffffffffff16905081600660006101000a81548173ffffffffffffffffffffffffffffffffffffffff021916908373ffffffffffffffffffffffffffffffffffffffff1602179055508173ffffffffffffffffffffffffffffffffffffffff168173ffffffffffffffffffffffffffffffffffffffff167f8be0079c531659141344cd1fd0a4f28419497f9722a3daafe3b4186f6b6457e060405160405180910390a35050565b8173ffffffffffffffffffffffffffffffffffffffff168373ffffffffffffffffffffffffffffffffffffffff161415611347576040517f08c379a000000000000000000000000000000000000000000000000000000000815260040161133e90612181565b60405180910390fd5b80600560008573ffffffffffffffffffffffffffffffffffffffff1673ffffffffffffffffffffffffffffffffffffffff16815260200190815260200160002060008473ffffffffffffffffffffffffffffffffffffffff1673ffffffffffffffffffffffffffffffffffffffff16815260200190815260200160002060006101000a81548160ff0219169083151502179055508173ffffffffffffffffffffffffffffffffffffffff168373ffffffffffffffffffffffffffffffffffffffff167f17307eab39ab6107e8899845ad3d59bd9653f200f220920489ca2b5937696c318360405161143891906120c4565b60405180910390a3505050565b611450848484610f74565b61145c848484846116ce565b61149b576040517f08c379a000000000000000000000000000000000000000000000000000000000815260040161149290612101565b60405180910390fd5b50505050565b60606040518060600160405280602f8152602001612b85602f9139905090565b60606000821415611509576040518060400160405280600181526020017f30000000000000000000000000000000000000000000000000000000000000008152509050611669565b600082905060005b6000821461153b57808061152490612589565b915050600a82611534919061240b565b9150611511565b60008167ffffffffffffffff81111561157d577f4e487b7100000000000000000000000000000000000000000000000000000000600052604160045260246000fd5b6040519080825280601f01601f1916602001820160405280156115af5781602001600182028036833780820191505090505b5090505b60008514611662576001826115c8919061243c565b9150600a856115d791906125d2565b60306115e391906123b5565b60f81b81838151811061161f577f4e487b7100000000000000000000000000000000000000000000000000000000600052603260045260246000fd5b60200101907effffffffffffffffffffffffffffffffffffffffffffffffffffffffffffff1916908160001a905350600a8561165b919061240b565b94506115b3565b8093505050505b919050565b505050565b61167d8383611865565b61168a60008484846116ce565b6116c9576040517f08c379a00000000000000000000000000000000000000000000000000000000081526004016116c090612101565b60405180910390fd5b505050565b60006116ef8473ffffffffffffffffffffffffffffffffffffffff16611a33565b15611858578373ffffffffffffffffffffffffffffffffffffffff1663150b7a02611718610dd5565b8786866040518563ffffffff1660e01b815260040161173a9493929190612078565b602060405180830381600087803b15801561175457600080fd5b505af192505050801561178557506040513d601f19601f820116820180604052508101906117829190611ce7565b60015b611808573d80600081146117b5576040519150601f19603f3d011682016040523d82523d6000602084013e6117ba565b606091505b50600081511415611800576040517f08c379a00000000000000000000000000000000000000000000000000000000081526004016117f790612101565b60405180910390fd5b805181602001fd5b63150b7a0260e01b7bffffffffffffffffffffffffffffffffffffffffffffffffffffffff1916817bffffffffffffffffffffffffffffffffffffffffffffffffffffffff19161491505061185d565b600190505b949350505050565b600073ffffffffffffffffffffffffffffffffffffffff168273ffffffffffffffffffffffffffffffffffffffff1614156118d5576040517f08c379a00000000000000000000000000000000000000000000000000000000081526004016118cc90612221565b60405180910390fd5b6118de81610d69565b1561191e576040517f08c379a000000000000000000000000000000000000000000000000000000000815260040161191590612141565b60405180910390fd5b61192a6000838361166e565b6001600360008473ffffffffffffffffffffffffffffffffffffffff1673ffffffffffffffffffffffffffffffffffffffff168152602001908152602001600020600082825461197a91906123b5565b92505081905550816002600083815260200190815260200160002060006101000a81548173ffffffffffffffffffffffffffffffffffffffff021916908373ffffffffffffffffffffffffffffffffffffffff160217905550808273ffffffffffffffffffffffffffffffffffffffff16600073ffffffffffffffffffffffffffffffffffffffff167fddf252ad1be2c89b69c2b068fc378daa952ba7f163c4a11628f55a4df523b3ef60405160405180910390a45050565b600080823b905060008111915050919050565b6000611a59611a5484612341565b61231c565b905082815260208101848484011115611a7157600080fd5b611a7c8482856124e4565b509392505050565b600081359050611a9381612b28565b92915050565b600081359050611aa881612b3f565b92915050565b600081359050611abd81612b56565b92915050565b600081519050611ad281612b56565b92915050565b600082601f830112611ae957600080fd5b8135611af9848260208601611a46565b91505092915050565b600081359050611b1181612b6d565b92915050565b600060208284031215611b2957600080fd5b6000611b3784828501611a84565b91505092915050565b60008060408385031215611b5357600080fd5b6000611b6185828601611a84565b9250506020611b7285828601611a84565b9150509250929050565b600080600060608486031215611b9157600080fd5b6000611b9f86828701611a84565b9350506020611bb086828701611a84565b9250506040611bc186828701611b02565b9150509250925092565b60008060008060808587031215611be157600080fd5b6000611bef87828801611a84565b9450506020611c0087828801611a84565b9350506040611c1187828801611b02565b925050606085013567ffffffffffffffff811115611c2e57600080fd5b611c3a87828801611ad8565b91505092959194509250565b60008060408385031215611c5957600080fd5b6000611c6785828601611a84565b9250506020611c7885828601611a99565b9150509250929050565b60008060408385031215611c9557600080fd5b6000611ca385828601611a84565b9250506020611cb485828601611b02565b9150509250929050565b600060208284031215611cd057600080fd5b6000611cde84828501611aae565b91505092915050565b600060208284031215611cf957600080fd5b6000611d0784828501611ac3565b91505092915050565b600060208284031215611d2257600080fd5b6000611d3084828501611b02565b91505092915050565b611d4281612470565b82525050565b611d5181612482565b82525050565b6000611d6282612372565b611d6c8185612388565b9350611d7c8185602086016124f3565b611d85816126bf565b840191505092915050565b6000611d9b8261237d565b611da58185612399565b9350611db58185602086016124f3565b611dbe816126bf565b840191505092915050565b6000611dd48261237d565b611dde81856123aa565b9350611dee8185602086016124f3565b80840191505092915050565b6000611e07603283612399565b9150611e12826126d0565b604082019050919050565b6000611e2a602683612399565b9150611e358261271f565b604082019050919050565b6000611e4d601c83612399565b9150611e588261276e565b602082019050919050565b6000611e70602483612399565b9150611e7b82612797565b604082019050919050565b6000611e93601983612399565b9150611e9e826127e6565b602082019050919050565b6000611eb6602c83612399565b9150611ec18261280f565b604082019050919050565b6000611ed9603883612399565b9150611ee48261285e565b604082019050919050565b6000611efc602a83612399565b9150611f07826128ad565b604082019050919050565b6000611f1f602983612399565b9150611f2a826128fc565b604082019050919050565b6000611f42602083612399565b9150611f4d8261294b565b602082019050919050565b6000611f65602c83612399565b9150611f7082612974565b604082019050919050565b6000611f88602083612399565b9150611f93826129c3565b602082019050919050565b6000611fab602983612399565b9150611fb6826129ec565b604082019050919050565b6000611fce602f83612399565b9150611fd982612a3b565b604082019050919050565b6000611ff1602183612399565b9150611ffc82612a8a565b604082019050919050565b6000612014603183612399565b915061201f82612ad9565b604082019050919050565b612033816124da565b82525050565b60006120458285611dc9565b91506120518284611dc9565b91508190509392505050565b60006020820190506120726000830184611d39565b92915050565b600060808201905061208d6000830187611d39565b61209a6020830186611d39565b6120a7604083018561202a565b81810360608301526120b98184611d57565b905095945050505050565b60006020820190506120d96000830184611d48565b92915050565b600060208201905081810360008301526120f98184611d90565b905092915050565b6000602082019050818103600083015261211a81611dfa565b9050919050565b6000602082019050818103600083015261213a81611e1d565b9050919050565b6000602082019050818103600083015261215a81611e40565b9050919050565b6000602082019050818103600083015261217a81611e63565b9050919050565b6000602082019050818103600083015261219a81611e86565b9050919050565b600060208201905081810360008301526121ba81611ea9565b9050919050565b600060208201905081810360008301526121da81611ecc565b9050919050565b600060208201905081810360008301526121fa81611eef565b9050919050565b6000602082019050818103600083015261221a81611f12565b9050919050565b6000602082019050818103600083015261223a81611f35565b9050919050565b6000602082019050818103600083015261225a81611f58565b9050919050565b6000602082019050818103600083015261227a81611f7b565b9050919050565b6000602082019050818103600083015261229a81611f9e565b9050919050565b600060208201905081810360008301526122ba81611fc1565b9050919050565b600060208201905081810360008301526122da81611fe4565b9050919050565b600060208201905081810360008301526122fa81612007565b9050919050565b6000602082019050612316600083018461202a565b92915050565b6000612326612337565b90506123328282612558565b919050565b6000604051905090565b600067ffffffffffffffff82111561235c5761235b612690565b5b612365826126bf565b9050602081019050919050565b600081519050919050565b600081519050919050565b600082825260208201905092915050565b600082825260208201905092915050565b600081905092915050565b60006123c0826124da565b91506123cb836124da565b9250827fffffffffffffffffffffffffffffffffffffffffffffffffffffffffffffffff03821115612400576123ff612603565b5b828201905092915050565b6000612416826124da565b9150612421836124da565b92508261243157612430612632565b5b828204905092915050565b6000612447826124da565b9150612452836124da565b92508282101561246557612464612603565b5b828203905092915050565b600061247b826124ba565b9050919050565b60008115159050919050565b60007fffffffff0000000000000000000000000000000000000000000000000000000082169050919050565b600073ffffffffffffffffffffffffffffffffffffffff82169050919050565b6000819050919050565b82818337600083830152505050565b60005b838110156125115780820151818401526020810190506124f6565b83811115612520576000848401525b50505050565b6000600282049050600182168061253e57607f821691505b6020821081141561255257612551612661565b5b50919050565b612561826126bf565b810181811067ffffffffffffffff821117156125805761257f612690565b5b80604052505050565b6000612594826124da565b91507fffffffffffffffffffffffffffffffffffffffffffffffffffffffffffffffff8214156125c7576125c6612603565b5b600182019050919050565b60006125dd826124da565b91506125e8836124da565b9250826125f8576125f7612632565b5b828206905092915050565b7f4e487b7100000000000000000000000000000000000000000000000000000000600052601160045260246000fd5b7f4e487b7100000000000000000000000000000000000000000000000000000000600052601260045260246000fd5b7f4e487b7100000000000000000000000000000000000000000000000000000000600052602260045260246000fd5b7f4e487b7100000000000000000000000000000000000000000000000000000000600052604160045260246000fd5b6000601f19601f8301169050919050565b7f4552433732313a207472616e7366657220746f206e6f6e20455243373231526560008201527f63656976657220696d706c656d656e7465720000000000000000000000000000602082015250565b7f4f776e61626c653a206e6577206f776e657220697320746865207a65726f206160008201527f6464726573730000000000000000000000000000000000000000000000000000602082015250565b7f4552433732313a20746f6b656e20616c7265616479206d696e74656400000000600082015250565b7f4552433732313a207472616e7366657220746f20746865207a65726f2061646460008201527f7265737300000000000000000000000000000000000000000000000000000000602082015250565b7f4552433732313a20617070726f766520746f2063616c6c657200000000000000600082015250565b7f4552433732313a206f70657261746f7220717565727920666f72206e6f6e657860008201527f697374656e7420746f6b656e0000000000000000000000000000000000000000602082015250565b7f4552433732313a20617070726f76652063616c6c6572206973206e6f74206f7760008201527f6e6572206e6f7220617070726f76656420666f7220616c6c0000000000000000602082015250565b7f4552433732313a2062616c616e636520717565727920666f7220746865207a6560008201527f726f206164647265737300000000000000000000000000000000000000000000602082015250565b7f4552433732313a206f776e657220717565727920666f72206e6f6e657869737460008201527f656e7420746f6b656e0000000000000000000000000000000000000000000000602082015250565b7f4552433732313a206d696e7420746f20746865207a65726f2061646472657373600082015250565b7f4552433732313a20617070726f76656420717565727920666f72206e6f6e657860008201527f697374656e7420746f6b656e0000000000000000000000000000000000000000602082015250565b7f4f776e61626c653a2063616c6c6572206973206e6f7420746865206f776e6572600082015250565b7f4552433732313a207472616e73666572206f6620746f6b656e2074686174206960008201527f73206e6f74206f776e0000000000000000000000000000000000000000000000602082015250565b7f4552433732314d657461646174613a2055524920717565727920666f72206e6f60008201527f6e6578697374656e7420746f6b656e0000000000000000000000000000000000602082015250565b7f4552433732313a20617070726f76616c20746f2063757272656e74206f776e6560008201527f7200000000000000000000000000000000000000000000000000000000000000602082015250565b7f4552433732313a207472616e736665722063616c6c6572206973206e6f74206f60008201527f776e6572206e6f7220617070726f766564000000000000000000000000000000602082015250565b612b3181612470565b8114612b3c57600080fd5b50565b612b4881612482565b8114612b5357600080fd5b50565b612b5f8161248e565b8114612b6a57600080fd5b50565b612b76816124da565b8114612b8157600080fd5b5056fe687474703a2f2f383832662d31342d3233322d3231342d3130312e6e67726f6b2e696f2f6170692f6572633732312fa26469706673582212207d536d30564166421bd471acde799cea4f619efc209b83b72eacc8b02f21d31264736f6c63430008040033",
  "immutableReferences": {},
  "source": "// SPDX-License-Identifier: MIT\npragma solidity <=0.8.4;\n\nimport \"@openzeppelin/contracts/token/ERC721/ERC721.sol\";\nimport \"@openzeppelin/contracts/utils/Counters.sol\";\nimport \"@openzeppelin/contracts/access/Ownable.sol\";\n\ncontract TorNFT is ERC721, Ownable {\n    using Counters for Counters.Counter;\n    Counters.Counter private _tokenIds;\n\n    constructor() ERC721(\"Emotion\", \"EMT\") {}\n\n    function _baseURI() internal pure override returns (string memory) {\n        return 'http://882f-14-232-214-101.ngrok.io/api/erc721/';\n    }\n\n    function mint(address receiver) public onlyOwner returns (uint256){\n        _tokenIds.increment();\n        uint256 newItemId = _tokenIds.current();\n        _safeMint(receiver, newItemId);\n        return newItemId;\n    }\n}\n",
  "sourcePath": "/Users/macbookpro/Projects/eth-todo-list/contracts/TorNFT.sol",
  "compiler": {
    "name": "solc",
    "version": "0.8.4+commit.c7e474f2.Emscripten.clang"
  },
  "schemaVersion": "3.4.4",
  "updatedAt": "2022-01-10T03:55:03.481Z",
  "networkType": "ethereum",
  "devdoc": {
    "kind": "dev",
    "methods": {
      "approve(address,uint256)": {
        "details": "See {IERC721-approve}."
      },
      "balanceOf(address)": {
        "details": "See {IERC721-balanceOf}."
      },
      "getApproved(uint256)": {
        "details": "See {IERC721-getApproved}."
      },
      "isApprovedForAll(address,address)": {
        "details": "See {IERC721-isApprovedForAll}."
      },
      "name()": {
        "details": "See {IERC721Metadata-name}."
      },
      "owner()": {
        "details": "Returns the address of the current owner."
      },
      "ownerOf(uint256)": {
        "details": "See {IERC721-ownerOf}."
      },
      "renounceOwnership()": {
        "details": "Leaves the contract without owner. It will not be possible to call `onlyOwner` functions anymore. Can only be called by the current owner. NOTE: Renouncing ownership will leave the contract without an owner, thereby removing any functionality that is only available to the owner."
      },
      "safeTransferFrom(address,address,uint256)": {
        "details": "See {IERC721-safeTransferFrom}."
      },
      "safeTransferFrom(address,address,uint256,bytes)": {
        "details": "See {IERC721-safeTransferFrom}."
      },
      "setApprovalForAll(address,bool)": {
        "details": "See {IERC721-setApprovalForAll}."
      },
      "supportsInterface(bytes4)": {
        "details": "See {IERC165-supportsInterface}."
      },
      "symbol()": {
        "details": "See {IERC721Metadata-symbol}."
      },
      "tokenURI(uint256)": {
        "details": "See {IERC721Metadata-tokenURI}."
      },
      "transferFrom(address,address,uint256)": {
        "details": "See {IERC721-transferFrom}."
      },
      "transferOwnership(address)": {
        "details": "Transfers ownership of the contract to a new account (`newOwner`). Can only be called by the current owner."
      }
    },
    "version": 1
  },
  "userdoc": {
    "kind": "user",
    "methods": {},
    "version": 1
  }
}