{
  "contractName": "TorNFT",
  "abi": [
    {
      "inputs": [],
      "stateMutability": "nonpayable",
      "type": "constructor"
    },
    {
      "anonymous": false,
      "inputs": [
        {
          "indexed": true,
          "internalType": "address",
          "name": "owner",
          "type": "address"
        },
        {
          "indexed": true,
          "internalType": "address",
          "name": "approved",
          "type": "address"
        },
        {
          "indexed": true,
          "internalType": "uint256",
          "name": "tokenId",
          "type": "uint256"
        }
      ],
      "name": "Approval",
      "type": "event"
    },
    {
      "anonymous": false,
      "inputs": [
        {
          "indexed": true,
          "internalType": "address",
          "name": "owner",
          "type": "address"
        },
        {
          "indexed": true,
          "internalType": "address",
          "name": "operator",
          "type": "address"
        },
        {
          "indexed": false,
          "internalType": "bool",
          "name": "approved",
          "type": "bool"
        }
      ],
      "name": "ApprovalForAll",
      "type": "event"
    },
    {
      "anonymous": false,
      "inputs": [
        {
          "indexed": true,
          "internalType": "address",
          "name": "previousOwner",
          "type": "address"
        },
        {
          "indexed": true,
          "internalType": "address",
          "name": "newOwner",
          "type": "address"
        }
      ],
      "name": "OwnershipTransferred",
      "type": "event"
    },
    {
      "anonymous": false,
      "inputs": [
        {
          "indexed": true,
          "internalType": "address",
          "name": "from",
          "type": "address"
        },
        {
          "indexed": true,
          "internalType": "address",
          "name": "to",
          "type": "address"
        },
        {
          "indexed": true,
          "internalType": "uint256",
          "name": "tokenId",
          "type": "uint256"
        }
      ],
      "name": "Transfer",
      "type": "event"
    },
    {
      "inputs": [
        {
          "internalType": "address",
          "name": "to",
          "type": "address"
        },
        {
          "internalType": "uint256",
          "name": "tokenId",
          "type": "uint256"
        }
      ],
      "name": "approve",
      "outputs": [],
      "stateMutability": "nonpayable",
      "type": "function"
    },
    {
      "inputs": [
        {
          "internalType": "address",
          "name": "owner",
          "type": "address"
        }
      ],
      "name": "balanceOf",
      "outputs": [
        {
          "internalType": "uint256",
          "name": "",
          "type": "uint256"
        }
      ],
      "stateMutability": "view",
      "type": "function",
      "constant": true
    },
    {
      "inputs": [
        {
          "internalType": "uint256",
          "name": "tokenId",
          "type": "uint256"
        }
      ],
      "name": "getApproved",
      "outputs": [
        {
          "internalType": "address",
          "name": "",
          "type": "address"
        }
      ],
      "stateMutability": "view",
      "type": "function",
      "constant": true
    },
    {
      "inputs": [
        {
          "internalType": "address",
          "name": "owner",
          "type": "address"
        },
        {
          "internalType": "address",
          "name": "operator",
          "type": "address"
        }
      ],
      "name": "isApprovedForAll",
      "outputs": [
        {
          "internalType": "bool",
          "name": "",
          "type": "bool"
        }
      ],
      "stateMutability": "view",
      "type": "function",
      "constant": true
    },
    {
      "inputs": [],
      "name": "name",
      "outputs": [
        {
          "internalType": "string",
          "name": "",
          "type": "string"
        }
      ],
      "stateMutability": "view",
      "type": "function",
      "constant": true
    },
    {
      "inputs": [],
      "name": "owner",
      "outputs": [
        {
          "internalType": "address",
          "name": "",
          "type": "address"
        }
      ],
      "stateMutability": "view",
      "type": "function",
      "constant": true
    },
    {
      "inputs": [
        {
          "internalType": "uint256",
          "name": "tokenId",
          "type": "uint256"
        }
      ],
      "name": "ownerOf",
      "outputs": [
        {
          "internalType": "address",
          "name": "",
          "type": "address"
        }
      ],
      "stateMutability": "view",
      "type": "function",
      "constant": true
    },
    {
      "inputs": [],
      "name": "renounceOwnership",
      "outputs": [],
      "stateMutability": "nonpayable",
      "type": "function"
    },
    {
      "inputs": [
        {
          "internalType": "address",
          "name": "from",
          "type": "address"
        },
        {
          "internalType": "address",
          "name": "to",
          "type": "address"
        },
        {
          "internalType": "uint256",
          "name": "tokenId",
          "type": "uint256"
        }
      ],
      "name": "safeTransferFrom",
      "outputs": [],
      "stateMutability": "nonpayable",
      "type": "function"
    },
    {
      "inputs": [
        {
          "internalType": "address",
          "name": "from",
          "type": "address"
        },
        {
          "internalType": "address",
          "name": "to",
          "type": "address"
        },
        {
          "internalType": "uint256",
          "name": "tokenId",
          "type": "uint256"
        },
        {
          "internalType": "bytes",
          "name": "_data",
          "type": "bytes"
        }
      ],
      "name": "safeTransferFrom",
      "outputs": [],
      "stateMutability": "nonpayable",
      "type": "function"
    },
    {
      "inputs": [
        {
          "internalType": "address",
          "name": "operator",
          "type": "address"
        },
        {
          "internalType": "bool",
          "name": "approved",
          "type": "bool"
        }
      ],
      "name": "setApprovalForAll",
      "outputs": [],
      "stateMutability": "nonpayable",
      "type": "function"
    },
    {
      "inputs": [
        {
          "internalType": "bytes4",
          "name": "interfaceId",
          "type": "bytes4"
        }
      ],
      "name": "supportsInterface",
      "outputs": [
        {
          "internalType": "bool",
          "name": "",
          "type": "bool"
        }
      ],
      "stateMutability": "view",
      "type": "function",
      "constant": true
    },
    {
      "inputs": [],
      "name": "symbol",
      "outputs": [
        {
          "internalType": "string",
          "name": "",
          "type": "string"
        }
      ],
      "stateMutability": "view",
      "type": "function",
      "constant": true
    },
    {
      "inputs": [
        {
          "internalType": "uint256",
          "name": "tokenId",
          "type": "uint256"
        }
      ],
      "name": "tokenURI",
      "outputs": [
        {
          "internalType": "string",
          "name": "",
          "type": "string"
        }
      ],
      "stateMutability": "view",
      "type": "function",
      "constant": true
    },
    {
      "inputs": [
        {
          "internalType": "address",
          "name": "from",
          "type": "address"
        },
        {
          "internalType": "address",
          "name": "to",
          "type": "address"
        },
        {
          "internalType": "uint256",
          "name": "tokenId",
          "type": "uint256"
        }
      ],
      "name": "transferFrom",
      "outputs": [],
      "stateMutability": "nonpayable",
      "type": "function"
    },
    {
      "inputs": [
        {
          "internalType": "address",
          "name": "newOwner",
          "type": "address"
        }
      ],
      "name": "transferOwnership",
      "outputs": [],
      "stateMutability": "nonpayable",
      "type": "function"
    },
    {
      "inputs": [
        {
          "internalType": "address",
          "name": "receiver",
          "type": "address"
        }
      ],
      "name": "mint",
      "outputs": [
        {
          "internalType": "uint256",
          "name": "",
          "type": "uint256"
        }
      ],
      "stateMutability": "nonpayable",
      "type": "function"
    }
  ],
  "bytecode": "0x60806040523480156200001157600080fd5b506040518060400160405280600781526020017f456d6f74696f6e000000000000000000000000000000000000000000000000008152506040518060400160405280600381526020017f454d540000000000000000000000000000000000000000000000000000000000815250816000908051906020019062000096929190620001a6565b508060019080519060200190620000af929190620001a6565b505050620000d2620000c6620000d860201b60201c565b620000e060201b60201c565b620002bb565b600033905090565b6000600660009054906101000a900473ffffffffffffffffffffffffffffffffffffffff16905081600660006101000a81548173ffffffffffffffffffffffffffffffffffffffff021916908373ffffffffffffffffffffffffffffffffffffffff1602179055508173ffffffffffffffffffffffffffffffffffffffff168173ffffffffffffffffffffffffffffffffffffffff167f8be0079c531659141344cd1fd0a4f28419497f9722a3daafe3b4186f6b6457e060405160405180910390a35050565b828054620001b49062000256565b90600052602060002090601f016020900481019282620001d8576000855562000224565b82601f10620001f357805160ff191683800117855562000224565b8280016001018555821562000224579182015b828111156200022357825182559160200191906001019062000206565b5b50905062000233919062000237565b5090565b5b808211156200025257600081600090555060010162000238565b5090565b600060028204905060018216806200026f57607f821691505b602082108114156200028657620002856200028c565b5b50919050565b7f4e487b7100000000000000000000000000000000000000000000000000000000600052602260045260246000fd5b612b6d80620002cb6000396000f3fe608060405234801561001057600080fd5b506004361061010b5760003560e01c806370a08231116100a2578063a22cb46511610071578063a22cb465146102b8578063b88d4fde146102d4578063c87b56dd146102f0578063e985e9c514610320578063f2fde38b146103505761010b565b806370a0823114610242578063715018a6146102725780638da5cb5b1461027c57806395d89b411461029a5761010b565b806323b872dd116100de57806323b872dd146101aa57806342842e0e146101c65780636352211e146101e25780636a627842146102125761010b565b806301ffc9a71461011057806306fdde0314610140578063081812fc1461015e578063095ea7b31461018e575b600080fd5b61012a60048036038101906101259190611c42565b61036c565b6040516101379190612048565b60405180910390f35b61014861044e565b6040516101559190612063565b60405180910390f35b61017860048036038101906101739190611c94565b6104e0565b6040516101859190611fe1565b60405180910390f35b6101a860048036038101906101a39190611c06565b610565565b005b6101c460048036038101906101bf9190611b00565b61067d565b005b6101e060048036038101906101db9190611b00565b6106dd565b005b6101fc60048036038101906101f79190611c94565b6106fd565b6040516102099190611fe1565b60405180910390f35b61022c60048036038101906102279190611a9b565b6107af565b6040516102399190612285565b60405180910390f35b61025c60048036038101906102579190611a9b565b6107dc565b6040516102699190612285565b60405180910390f35b61027a610894565b005b61028461091c565b6040516102919190611fe1565b60405180910390f35b6102a2610946565b6040516102af9190612063565b60405180910390f35b6102d260048036038101906102cd9190611bca565b6109d8565b005b6102ee60048036038101906102e99190611b4f565b6109ee565b005b61030a60048036038101906103059190611c94565b610a50565b6040516103179190612063565b60405180910390f35b61033a60048036038101906103359190611ac4565b610af7565b6040516103479190612048565b60405180910390f35b61036a60048036038101906103659190611a9b565b610b8b565b005b60007f80ac58cd000000000000000000000000000000000000000000000000000000007bffffffffffffffffffffffffffffffffffffffffffffffffffffffff1916827bffffffffffffffffffffffffffffffffffffffffffffffffffffffff1916148061043757507f5b5e139f000000000000000000000000000000000000000000000000000000007bffffffffffffffffffffffffffffffffffffffffffffffffffffffff1916827bffffffffffffffffffffffffffffffffffffffffffffffffffffffff1916145b80610447575061044682610c83565b5b9050919050565b60606000805461045d906124aa565b80601f0160208091040260200160405190810160405280929190818152602001828054610489906124aa565b80156104d65780601f106104ab576101008083540402835291602001916104d6565b820191906000526020600020905b8154815290600101906020018083116104b957829003601f168201915b5050505050905090565b60006104eb82610ced565b61052a576040517f08c379a0000000000000000000000000000000000000000000000000000000008152600401610521906121c5565b60405180910390fd5b6004600083815260200190815260200160002060009054906101000a900473ffffffffffffffffffffffffffffffffffffffff169050919050565b6000610570826106fd565b90508073ffffffffffffffffffffffffffffffffffffffff168373ffffffffffffffffffffffffffffffffffffffff1614156105e1576040517f08c379a00000000000000000000000000000000000000000000000000000000081526004016105d890612245565b60405180910390fd5b8073ffffffffffffffffffffffffffffffffffffffff16610600610d59565b73ffffffffffffffffffffffffffffffffffffffff16148061062f575061062e81610629610d59565b610af7565b5b61066e576040517f08c379a000000000000000000000000000000000000000000000000000000000815260040161066590612145565b60405180910390fd5b6106788383610d61565b505050565b61068e610688610d59565b82610e1a565b6106cd576040517f08c379a00000000000000000000000000000000000000000000000000000000081526004016106c490612265565b60405180910390fd5b6106d8838383610ef8565b505050565b6106f8838383604051806020016040528060008152506109ee565b505050565b6000806002600084815260200190815260200160002060009054906101000a900473ffffffffffffffffffffffffffffffffffffffff169050600073ffffffffffffffffffffffffffffffffffffffff168173ffffffffffffffffffffffffffffffffffffffff1614156107a6576040517f08c379a000000000000000000000000000000000000000000000000000000000815260040161079d90612185565b60405180910390fd5b80915050919050565b60006107bb6007611154565b60006107c7600761116a565b90506107d38382611178565b80915050919050565b60008073ffffffffffffffffffffffffffffffffffffffff168273ffffffffffffffffffffffffffffffffffffffff16141561084d576040517f08c379a000000000000000000000000000000000000000000000000000000000815260040161084490612165565b60405180910390fd5b600360008373ffffffffffffffffffffffffffffffffffffffff1673ffffffffffffffffffffffffffffffffffffffff168152602001908152602001600020549050919050565b61089c610d59565b73ffffffffffffffffffffffffffffffffffffffff166108ba61091c565b73ffffffffffffffffffffffffffffffffffffffff1614610910576040517f08c379a0000000000000000000000000000000000000000000000000000000008152600401610907906121e5565b60405180910390fd5b61091a6000611196565b565b6000600660009054906101000a900473ffffffffffffffffffffffffffffffffffffffff16905090565b606060018054610955906124aa565b80601f0160208091040260200160405190810160405280929190818152602001828054610981906124aa565b80156109ce5780601f106109a3576101008083540402835291602001916109ce565b820191906000526020600020905b8154815290600101906020018083116109b157829003601f168201915b5050505050905090565b6109ea6109e3610d59565b838361125c565b5050565b6109ff6109f9610d59565b83610e1a565b610a3e576040517f08c379a0000000000000000000000000000000000000000000000000000000008152600401610a3590612265565b60405180910390fd5b610a4a848484846113c9565b50505050565b6060610a5b82610ced565b610a9a576040517f08c379a0000000000000000000000000000000000000000000000000000000008152600401610a9190612225565b60405180910390fd5b6000610aa4611425565b90506000815111610ac45760405180602001604052806000815250610aef565b80610ace84611445565b604051602001610adf929190611fbd565b6040516020818303038152906040525b915050919050565b6000600560008473ffffffffffffffffffffffffffffffffffffffff1673ffffffffffffffffffffffffffffffffffffffff16815260200190815260200160002060008373ffffffffffffffffffffffffffffffffffffffff1673ffffffffffffffffffffffffffffffffffffffff16815260200190815260200160002060009054906101000a900460ff16905092915050565b610b93610d59565b73ffffffffffffffffffffffffffffffffffffffff16610bb161091c565b73ffffffffffffffffffffffffffffffffffffffff1614610c07576040517f08c379a0000000000000000000000000000000000000000000000000000000008152600401610bfe906121e5565b60405180910390fd5b600073ffffffffffffffffffffffffffffffffffffffff168173ffffffffffffffffffffffffffffffffffffffff161415610c77576040517f08c379a0000000000000000000000000000000000000000000000000000000008152600401610c6e906120a5565b60405180910390fd5b610c8081611196565b50565b60007f01ffc9a7000000000000000000000000000000000000000000000000000000007bffffffffffffffffffffffffffffffffffffffffffffffffffffffff1916827bffffffffffffffffffffffffffffffffffffffffffffffffffffffff1916149050919050565b60008073ffffffffffffffffffffffffffffffffffffffff166002600084815260200190815260200160002060009054906101000a900473ffffffffffffffffffffffffffffffffffffffff1673ffffffffffffffffffffffffffffffffffffffff1614159050919050565b600033905090565b816004600083815260200190815260200160002060006101000a81548173ffffffffffffffffffffffffffffffffffffffff021916908373ffffffffffffffffffffffffffffffffffffffff160217905550808273ffffffffffffffffffffffffffffffffffffffff16610dd4836106fd565b73ffffffffffffffffffffffffffffffffffffffff167f8c5be1e5ebec7d5bd14f71427d1e84f3dd0314c0f7b2291e5b200ac8c7c3b92560405160405180910390a45050565b6000610e2582610ced565b610e64576040517f08c379a0000000000000000000000000000000000000000000000000000000008152600401610e5b90612125565b60405180910390fd5b6000610e6f836106fd565b90508073ffffffffffffffffffffffffffffffffffffffff168473ffffffffffffffffffffffffffffffffffffffff161480610ede57508373ffffffffffffffffffffffffffffffffffffffff16610ec6846104e0565b73ffffffffffffffffffffffffffffffffffffffff16145b80610eef5750610eee8185610af7565b5b91505092915050565b8273ffffffffffffffffffffffffffffffffffffffff16610f18826106fd565b73ffffffffffffffffffffffffffffffffffffffff1614610f6e576040517f08c379a0000000000000000000000000000000000000000000000000000000008152600401610f6590612205565b60405180910390fd5b600073ffffffffffffffffffffffffffffffffffffffff168273ffffffffffffffffffffffffffffffffffffffff161415610fde576040517f08c379a0000000000000000000000000000000000000000000000000000000008152600401610fd5906120e5565b60405180910390fd5b610fe98383836115f2565b610ff4600082610d61565b6001600360008573ffffffffffffffffffffffffffffffffffffffff1673ffffffffffffffffffffffffffffffffffffffff168152602001908152602001600020600082825461104491906123c0565b925050819055506001600360008473ffffffffffffffffffffffffffffffffffffffff1673ffffffffffffffffffffffffffffffffffffffff168152602001908152602001600020600082825461109b9190612339565b92505081905550816002600083815260200190815260200160002060006101000a81548173ffffffffffffffffffffffffffffffffffffffff021916908373ffffffffffffffffffffffffffffffffffffffff160217905550808273ffffffffffffffffffffffffffffffffffffffff168473ffffffffffffffffffffffffffffffffffffffff167fddf252ad1be2c89b69c2b068fc378daa952ba7f163c4a11628f55a4df523b3ef60405160405180910390a4505050565b6001816000016000828254019250508190555050565b600081600001549050919050565b6111928282604051806020016040528060008152506115f7565b5050565b6000600660009054906101000a900473ffffffffffffffffffffffffffffffffffffffff16905081600660006101000a81548173ffffffffffffffffffffffffffffffffffffffff021916908373ffffffffffffffffffffffffffffffffffffffff1602179055508173ffffffffffffffffffffffffffffffffffffffff168173ffffffffffffffffffffffffffffffffffffffff167f8be0079c531659141344cd1fd0a4f28419497f9722a3daafe3b4186f6b6457e060405160405180910390a35050565b8173ffffffffffffffffffffffffffffffffffffffff168373ffffffffffffffffffffffffffffffffffffffff1614156112cb576040517f08c379a00000000000000000000000000000000000000000000000000000000081526004016112c290612105565b60405180910390fd5b80600560008573ffffffffffffffffffffffffffffffffffffffff1673ffffffffffffffffffffffffffffffffffffffff16815260200190815260200160002060008473ffffffffffffffffffffffffffffffffffffffff1673ffffffffffffffffffffffffffffffffffffffff16815260200190815260200160002060006101000a81548160ff0219169083151502179055508173ffffffffffffffffffffffffffffffffffffffff168373ffffffffffffffffffffffffffffffffffffffff167f17307eab39ab6107e8899845ad3d59bd9653f200f220920489ca2b5937696c31836040516113bc9190612048565b60405180910390a3505050565b6113d4848484610ef8565b6113e084848484611652565b61141f576040517f08c379a000000000000000000000000000000000000000000000000000000000815260040161141690612085565b60405180910390fd5b50505050565b60606040518060600160405280602f8152602001612b09602f9139905090565b6060600082141561148d576040518060400160405280600181526020017f300000000000000000000000000000000000000000000000000000000000000081525090506115ed565b600082905060005b600082146114bf5780806114a89061250d565b915050600a826114b8919061238f565b9150611495565b60008167ffffffffffffffff811115611501577f4e487b7100000000000000000000000000000000000000000000000000000000600052604160045260246000fd5b6040519080825280601f01601f1916602001820160405280156115335781602001600182028036833780820191505090505b5090505b600085146115e65760018261154c91906123c0565b9150600a8561155b9190612556565b60306115679190612339565b60f81b8183815181106115a3577f4e487b7100000000000000000000000000000000000000000000000000000000600052603260045260246000fd5b60200101907effffffffffffffffffffffffffffffffffffffffffffffffffffffffffffff1916908160001a905350600a856115df919061238f565b9450611537565b8093505050505b919050565b505050565b61160183836117e9565b61160e6000848484611652565b61164d576040517f08c379a000000000000000000000000000000000000000000000000000000000815260040161164490612085565b60405180910390fd5b505050565b60006116738473ffffffffffffffffffffffffffffffffffffffff166119b7565b156117dc578373ffffffffffffffffffffffffffffffffffffffff1663150b7a0261169c610d59565b8786866040518563ffffffff1660e01b81526004016116be9493929190611ffc565b602060405180830381600087803b1580156116d857600080fd5b505af192505050801561170957506040513d601f19601f820116820180604052508101906117069190611c6b565b60015b61178c573d8060008114611739576040519150601f19603f3d011682016040523d82523d6000602084013e61173e565b606091505b50600081511415611784576040517f08c379a000000000000000000000000000000000000000000000000000000000815260040161177b90612085565b60405180910390fd5b805181602001fd5b63150b7a0260e01b7bffffffffffffffffffffffffffffffffffffffffffffffffffffffff1916817bffffffffffffffffffffffffffffffffffffffffffffffffffffffff1916149150506117e1565b600190505b949350505050565b600073ffffffffffffffffffffffffffffffffffffffff168273ffffffffffffffffffffffffffffffffffffffff161415611859576040517f08c379a0000000000000000000000000000000000000000000000000000000008152600401611850906121a5565b60405180910390fd5b61186281610ced565b156118a2576040517f08c379a0000000000000000000000000000000000000000000000000000000008152600401611899906120c5565b60405180910390fd5b6118ae600083836115f2565b6001600360008473ffffffffffffffffffffffffffffffffffffffff1673ffffffffffffffffffffffffffffffffffffffff16815260200190815260200160002060008282546118fe9190612339565b92505081905550816002600083815260200190815260200160002060006101000a81548173ffffffffffffffffffffffffffffffffffffffff021916908373ffffffffffffffffffffffffffffffffffffffff160217905550808273ffffffffffffffffffffffffffffffffffffffff16600073ffffffffffffffffffffffffffffffffffffffff167fddf252ad1be2c89b69c2b068fc378daa952ba7f163c4a11628f55a4df523b3ef60405160405180910390a45050565b600080823b905060008111915050919050565b60006119dd6119d8846122c5565b6122a0565b9050828152602081018484840111156119f557600080fd5b611a00848285612468565b509392505050565b600081359050611a1781612aac565b92915050565b600081359050611a2c81612ac3565b92915050565b600081359050611a4181612ada565b92915050565b600081519050611a5681612ada565b92915050565b600082601f830112611a6d57600080fd5b8135611a7d8482602086016119ca565b91505092915050565b600081359050611a9581612af1565b92915050565b600060208284031215611aad57600080fd5b6000611abb84828501611a08565b91505092915050565b60008060408385031215611ad757600080fd5b6000611ae585828601611a08565b9250506020611af685828601611a08565b9150509250929050565b600080600060608486031215611b1557600080fd5b6000611b2386828701611a08565b9350506020611b3486828701611a08565b9250506040611b4586828701611a86565b9150509250925092565b60008060008060808587031215611b6557600080fd5b6000611b7387828801611a08565b9450506020611b8487828801611a08565b9350506040611b9587828801611a86565b925050606085013567ffffffffffffffff811115611bb257600080fd5b611bbe87828801611a5c565b91505092959194509250565b60008060408385031215611bdd57600080fd5b6000611beb85828601611a08565b9250506020611bfc85828601611a1d565b9150509250929050565b60008060408385031215611c1957600080fd5b6000611c2785828601611a08565b9250506020611c3885828601611a86565b9150509250929050565b600060208284031215611c5457600080fd5b6000611c6284828501611a32565b91505092915050565b600060208284031215611c7d57600080fd5b6000611c8b84828501611a47565b91505092915050565b600060208284031215611ca657600080fd5b6000611cb484828501611a86565b91505092915050565b611cc6816123f4565b82525050565b611cd581612406565b82525050565b6000611ce6826122f6565b611cf0818561230c565b9350611d00818560208601612477565b611d0981612643565b840191505092915050565b6000611d1f82612301565b611d29818561231d565b9350611d39818560208601612477565b611d4281612643565b840191505092915050565b6000611d5882612301565b611d62818561232e565b9350611d72818560208601612477565b80840191505092915050565b6000611d8b60328361231d565b9150611d9682612654565b604082019050919050565b6000611dae60268361231d565b9150611db9826126a3565b604082019050919050565b6000611dd1601c8361231d565b9150611ddc826126f2565b602082019050919050565b6000611df460248361231d565b9150611dff8261271b565b604082019050919050565b6000611e1760198361231d565b9150611e228261276a565b602082019050919050565b6000611e3a602c8361231d565b9150611e4582612793565b604082019050919050565b6000611e5d60388361231d565b9150611e68826127e2565b604082019050919050565b6000611e80602a8361231d565b9150611e8b82612831565b604082019050919050565b6000611ea360298361231d565b9150611eae82612880565b604082019050919050565b6000611ec660208361231d565b9150611ed1826128cf565b602082019050919050565b6000611ee9602c8361231d565b9150611ef4826128f8565b604082019050919050565b6000611f0c60208361231d565b9150611f1782612947565b602082019050919050565b6000611f2f60298361231d565b9150611f3a82612970565b604082019050919050565b6000611f52602f8361231d565b9150611f5d826129bf565b604082019050919050565b6000611f7560218361231d565b9150611f8082612a0e565b604082019050919050565b6000611f9860318361231d565b9150611fa382612a5d565b604082019050919050565b611fb78161245e565b82525050565b6000611fc98285611d4d565b9150611fd58284611d4d565b91508190509392505050565b6000602082019050611ff66000830184611cbd565b92915050565b60006080820190506120116000830187611cbd565b61201e6020830186611cbd565b61202b6040830185611fae565b818103606083015261203d8184611cdb565b905095945050505050565b600060208201905061205d6000830184611ccc565b92915050565b6000602082019050818103600083015261207d8184611d14565b905092915050565b6000602082019050818103600083015261209e81611d7e565b9050919050565b600060208201905081810360008301526120be81611da1565b9050919050565b600060208201905081810360008301526120de81611dc4565b9050919050565b600060208201905081810360008301526120fe81611de7565b9050919050565b6000602082019050818103600083015261211e81611e0a565b9050919050565b6000602082019050818103600083015261213e81611e2d565b9050919050565b6000602082019050818103600083015261215e81611e50565b9050919050565b6000602082019050818103600083015261217e81611e73565b9050919050565b6000602082019050818103600083015261219e81611e96565b9050919050565b600060208201905081810360008301526121be81611eb9565b9050919050565b600060208201905081810360008301526121de81611edc565b9050919050565b600060208201905081810360008301526121fe81611eff565b9050919050565b6000602082019050818103600083015261221e81611f22565b9050919050565b6000602082019050818103600083015261223e81611f45565b9050919050565b6000602082019050818103600083015261225e81611f68565b9050919050565b6000602082019050818103600083015261227e81611f8b565b9050919050565b600060208201905061229a6000830184611fae565b92915050565b60006122aa6122bb565b90506122b682826124dc565b919050565b6000604051905090565b600067ffffffffffffffff8211156122e0576122df612614565b5b6122e982612643565b9050602081019050919050565b600081519050919050565b600081519050919050565b600082825260208201905092915050565b600082825260208201905092915050565b600081905092915050565b60006123448261245e565b915061234f8361245e565b9250827fffffffffffffffffffffffffffffffffffffffffffffffffffffffffffffffff0382111561238457612383612587565b5b828201905092915050565b600061239a8261245e565b91506123a58361245e565b9250826123b5576123b46125b6565b5b828204905092915050565b60006123cb8261245e565b91506123d68361245e565b9250828210156123e9576123e8612587565b5b828203905092915050565b60006123ff8261243e565b9050919050565b60008115159050919050565b60007fffffffff0000000000000000000000000000000000000000000000000000000082169050919050565b600073ffffffffffffffffffffffffffffffffffffffff82169050919050565b6000819050919050565b82818337600083830152505050565b60005b8381101561249557808201518184015260208101905061247a565b838111156124a4576000848401525b50505050565b600060028204905060018216806124c257607f821691505b602082108114156124d6576124d56125e5565b5b50919050565b6124e582612643565b810181811067ffffffffffffffff8211171561250457612503612614565b5b80604052505050565b60006125188261245e565b91507fffffffffffffffffffffffffffffffffffffffffffffffffffffffffffffffff82141561254b5761254a612587565b5b600182019050919050565b60006125618261245e565b915061256c8361245e565b92508261257c5761257b6125b6565b5b828206905092915050565b7f4e487b7100000000000000000000000000000000000000000000000000000000600052601160045260246000fd5b7f4e487b7100000000000000000000000000000000000000000000000000000000600052601260045260246000fd5b7f4e487b7100000000000000000000000000000000000000000000000000000000600052602260045260246000fd5b7f4e487b7100000000000000000000000000000000000000000000000000000000600052604160045260246000fd5b6000601f19601f8301169050919050565b7f4552433732313a207472616e7366657220746f206e6f6e20455243373231526560008201527f63656976657220696d706c656d656e7465720000000000000000000000000000602082015250565b7f4f776e61626c653a206e6577206f776e657220697320746865207a65726f206160008201527f6464726573730000000000000000000000000000000000000000000000000000602082015250565b7f4552433732313a20746f6b656e20616c7265616479206d696e74656400000000600082015250565b7f4552433732313a207472616e7366657220746f20746865207a65726f2061646460008201527f7265737300000000000000000000000000000000000000000000000000000000602082015250565b7f4552433732313a20617070726f766520746f2063616c6c657200000000000000600082015250565b7f4552433732313a206f70657261746f7220717565727920666f72206e6f6e657860008201527f697374656e7420746f6b656e0000000000000000000000000000000000000000602082015250565b7f4552433732313a20617070726f76652063616c6c6572206973206e6f74206f7760008201527f6e6572206e6f7220617070726f76656420666f7220616c6c0000000000000000602082015250565b7f4552433732313a2062616c616e636520717565727920666f7220746865207a6560008201527f726f206164647265737300000000000000000000000000000000000000000000602082015250565b7f4552433732313a206f776e657220717565727920666f72206e6f6e657869737460008201527f656e7420746f6b656e0000000000000000000000000000000000000000000000602082015250565b7f4552433732313a206d696e7420746f20746865207a65726f2061646472657373600082015250565b7f4552433732313a20617070726f76656420717565727920666f72206e6f6e657860008201527f697374656e7420746f6b656e0000000000000000000000000000000000000000602082015250565b7f4f776e61626c653a2063616c6c6572206973206e6f7420746865206f776e6572600082015250565b7f4552433732313a207472616e73666572206f6620746f6b656e2074686174206960008201527f73206e6f74206f776e0000000000000000000000000000000000000000000000602082015250565b7f4552433732314d657461646174613a2055524920717565727920666f72206e6f60008201527f6e6578697374656e7420746f6b656e0000000000000000000000000000000000602082015250565b7f4552433732313a20617070726f76616c20746f2063757272656e74206f776e6560008201527f7200000000000000000000000000000000000000000000000000000000000000602082015250565b7f4552433732313a207472616e736665722063616c6c6572206973206e6f74206f60008201527f776e6572206e6f7220617070726f766564000000000000000000000000000000602082015250565b612ab5816123f4565b8114612ac057600080fd5b50565b612acc81612406565b8114612ad757600080fd5b50565b612ae381612412565b8114612aee57600080fd5b50565b612afa8161245e565b8114612b0557600080fd5b5056fe687474703a2f2f383832662d31342d3233322d3231342d3130312e6e67726f6b2e696f2f6170692f6572633732312fa2646970667358221220167cf57c98b38af4de12760901024e22ec864fc52109eeecc39d64d38e4ef3ab64736f6c63430008040033",
  "immutableReferences": {},
  "source": "// SPDX-License-Identifier: MIT\npragma solidity <=0.8.4;\n\nimport \"@openzeppelin/contracts/token/ERC721/ERC721.sol\";\nimport \"@openzeppelin/contracts/utils/Counters.sol\";\nimport \"@openzeppelin/contracts/access/Ownable.sol\";\n\ncontract TorNFT is ERC721, Ownable {\n    using Counters for Counters.Counter;\n    Counters.Counter private _tokenIds;\n\n    constructor() ERC721(\"Emotion\", \"EMT\") {}\n\n    function _baseURI() internal pure override returns (string memory) {\n        return 'http://882f-14-232-214-101.ngrok.io/api/erc721/';\n    }\n\n    function mint(address receiver) public returns (uint256) {\n        _tokenIds.increment();\n        uint256 newItemId = _tokenIds.current();\n        _safeMint(receiver, newItemId);\n        return newItemId;\n    }\n}\n",
  "sourcePath": "/Users/macbookpro/Projects/eth-todo-list/contracts/TorNFT.sol",
  "compiler": {
    "name": "solc",
    "version": "0.8.4+commit.c7e474f2.Emscripten.clang"
  },
  "schemaVersion": "3.4.3",
  "updatedAt": "2022-01-12T01:23:15.512Z",
  "networkType": "ethereum",
  "devdoc": {
    "kind": "dev",
    "methods": {
      "approve(address,uint256)": {
        "details": "See {IERC721-approve}."
      },
      "balanceOf(address)": {
        "details": "See {IERC721-balanceOf}."
      },
      "getApproved(uint256)": {
        "details": "See {IERC721-getApproved}."
      },
      "isApprovedForAll(address,address)": {
        "details": "See {IERC721-isApprovedForAll}."
      },
      "name()": {
        "details": "See {IERC721Metadata-name}."
      },
      "owner()": {
        "details": "Returns the address of the current owner."
      },
      "ownerOf(uint256)": {
        "details": "See {IERC721-ownerOf}."
      },
      "renounceOwnership()": {
        "details": "Leaves the contract without owner. It will not be possible to call `onlyOwner` functions anymore. Can only be called by the current owner. NOTE: Renouncing ownership will leave the contract without an owner, thereby removing any functionality that is only available to the owner."
      },
      "safeTransferFrom(address,address,uint256)": {
        "details": "See {IERC721-safeTransferFrom}."
      },
      "safeTransferFrom(address,address,uint256,bytes)": {
        "details": "See {IERC721-safeTransferFrom}."
      },
      "setApprovalForAll(address,bool)": {
        "details": "See {IERC721-setApprovalForAll}."
      },
      "supportsInterface(bytes4)": {
        "details": "See {IERC165-supportsInterface}."
      },
      "symbol()": {
        "details": "See {IERC721Metadata-symbol}."
      },
      "tokenURI(uint256)": {
        "details": "See {IERC721Metadata-tokenURI}."
      },
      "transferFrom(address,address,uint256)": {
        "details": "See {IERC721-transferFrom}."
      },
      "transferOwnership(address)": {
        "details": "Transfers ownership of the contract to a new account (`newOwner`). Can only be called by the current owner."
      }
    },
    "version": 1
  },
  "userdoc": {
    "kind": "user",
    "methods": {},
    "version": 1
  }
}